:020000040800F2
:10000000C00D0020790200084D210008D51F00080E
:10001000E11F0008D91B0008FF2E000800000000A7
:10002000000000000000000000000000452400085F
:10003000011D000800000000ED22000875250008E1
:10004000930200089302000893020008930200083C
:10005000930200089302000893020008930200082C
:10006000930200089302000893020008930200081C
:10007000930200089302000893020008930200080C
:1000800093020008930200089302000893020008FC
:1000900093020008930200089302000893020008EC
:1000A00093020008930200089302000893020008DC
:1000B000D92500089302000865260008930200086D
:1000C00093020008930200089302000893020008BC
:1000D00093020008292B0008C52B0008312C0008CA
:1000E000930200089302000893020008930200089C
:1000F000930200089302000893020008930200088C
:10010000930200089302000893020008930200087B
:10011000592A0008C12A0008930200089302000827
:10012000930200089302000893020008930200085B
:1001300000F002F800F090F80AA090E8000C824469
:100140008344AAF10107DA4501D100F085F8AFF246
:10015000090EBAE80F0013F0010F18BFFB1A43F0A5
:100160000103184798370000B8370000103A24BF41
:1001700078C878C1FAD8520724BF30C830C144BF0C
:1001800004680C607047000000230024002500264E
:10019000103A28BF78C1FBD8520728BF30C148BFEA
:1001A0000B6070476E2900F09882702900F003847C
:1001B000662903F01F83652903F01C83672903F078
:1001C0001983612903F0188303681B0A28BF41F0D3
:1001D0008001692900F0BA80642900F0B780752990
:1001E00000F0B4806F2900F09083782900F0CF836D
:1001F000E92900F02B83E42900F02883F52900F099
:100200002583EF2900F08D83F82900F0CE83036861
:10021000DB0928BF41F08001632900F09A8273292D
:1002200000F09F82E32900F0AD87F32900F0B28748
:10023000002070471FB501F003F8040000200021E2
:1002400003F0C2FA401C60600020002103F0A6FA0F
:10025000E0601FBD10B510BD00F0C4FF1146FFF7F0
:10026000E9FF02F0DFFF01F0A1F803B4FFF7F2FFAE
:1002700003BC02F061FE00000948804709480047BE
:10028000FEE7FEE7FEE7FEE7FEE7FEE7FEE7FEE746
:10029000FEE7FEE704480549054A064B70470000A3
:1002A0007925000831010008C0070020C00D00209A
:1002B000C0090020C0090020704700001CB50C4692
:1002C000064B7B4469460090204600F020FA044625
:1002D0000020694600F02EFA20461CBD6F04000085
:1002E0000FB4044910B503AA029800F03FFA10BCFD
:1002F0005DF814FB2C00002070B50C460546012A61
:1003000005D02878800600D5EA69002302E00123A1
:1003100005E05B1C934202D2E05C0028F9D1A86999
:10032000E618C01AA861286A18442862284600F016
:1003300042F904E0D5E9012114F8010B9047B442D9
:10034000F8D3284600F04DF970BD00002DE9F041CA
:100350000646002410687529314616A510D000F015
:1003600051F9002802DA404213A507E031688A07F4
:1003700001D512A502E0490704D511A5012401E029
:1003800000F049F900210A2206F1240709E0B0FB38
:10039000F2FCB0FBF2F302FB1C003030785418463C
:1003A000491C0028F3D123462A463046BDE8F041D7
:1003B00000F03AB9000000002D0000002B00000002
:1003C000200000002DE9F05F894604464FF0000A46
:1003D000DFF874B1FB44C0F820A02046E1688847EC
:1003E000002874D0252806D0D4E901219047206A3E
:1003F000401C2062F1E700265F462046E1688847FE
:100400002028054607DB312D05D2781910F8200C7D
:1004100008B10643F1E7B00701D526F00406C4F899
:100420001CA00027C4F818A02A2D09D0284602F0E5
:100430007CFD38B304EB8708303DC8F8185019E04C
:1004400059F8041B204604EB87029161E168884754
:10045000012F054618D1E069002820DA26F0200691
:100460001DE0D8F8180000EB800005EB40003038A4
:10047000C8F818002046E1688847054602F055FD97
:100480000028EED1012F0AD02E2D08D12046E16898
:1004900088477F1C0546022F46F02006C4DBA06972
:1004A000002803DA404246F00106A061F00701D0BF
:1004B00026F010066C2D0BD0682D09D04C2D39D0AC
:1004C0006A2D35D0742D35D07A2D33D016E038E032
:1004D000E1682F4620468847B842054609D16C2F6F
:1004E00026D04FF48060E1680643204688470546E1
:1004F00004E06C2F1AD04FF4807006430DB3A5F1C1
:100500004100192802D8203546F400664A4629469B
:10051000204626604E46FFF745FE80B101280BD0ED
:10052000F61D26F0070000F1080956E74020E4E731
:100530008020D8E70020D6E706F104094DE72846D9
:1005400052E7206ABDE8F09F2434000030B505462C
:100550000B462A4613F8014B12F8010B08B1A042D2
:10056000F8D01CB1002802D06D1CF1E7284630BD40
:1005700010B5431C02E010F8011B71B18107FAD1DC
:100580004FF0013202C88C1A8C4314EAC211F9D020
:10059000C01A0A0603D0C01E10BDC01A10BD0A043E
:1005A00001D0801E10BD0902FCD0401E10BD704756
:1005B00070477047704770B5044685690068C1068A
:1005C00001D5302600E02026C00707D070BDD4E951
:1005D000012130469047206A401C20626D1EF6D5EE
:1005E00070BD70B5044685690078C00707D170BD3D
:1005F000D4E9012120209047206A401C20626D1E12
:10060000F6D570BD09684A0501D540B27047C905E5
:10061000FCD500B2704709684A0501D5C0B27047E1
:10062000C905FCD580B270472DE9F0470D469946C3
:100630009246044600F124080168880604D5E06962
:1006400021F01001216000E00120A84201DD471BDC
:1006500000E00027A1697A1902EB0900081AA061DD
:100660002078C00602D42046FFF7A5FF002608E048
:10067000D4E901211AF806009047206A401C761C34
:1006800020624E45F4DB2078C0060AD52046FFF7ED
:1006900092FF06E0D4E9012130209047206A401CF7
:1006A0002062381EA7F10107F4DC07E0D4E901213C
:1006B00018F805009047206A401C2062281EA5F10A
:1006C0000105F3DC2046FFF78CFF2078000602D5F9
:1006D0000220BDE8F0870120FBE711680268006A8C
:1006E000530501D508700AE0D30501D5088006E05E
:1006F000130603D5C217C1E9000200E0086001201B
:100700007047000001694A1C02610878704700B513
:100710008FB0CDE901310021059105497944CDE93A
:10072000031011466846FFF74DFE0FB000BD0000F4
:10073000E5FFFFFF0A6802F8010B0A60704710B579
:10074000436913B1AFF3008001E0FFF7D5FD01204D
:1007500010BD127800F124010A7000224A700122B3
:10076000EDE711684FF0FF32E9E70000074B70B585
:100770000D467B44FFF7CBFF0446284600F00EFDF4
:1007800010B14FF0FF3070BD204670BD932A0000BD
:100790002DE9FF5F15468A460446DFF8AC80F84431
:1007A0000027D8E900103E46CDE9001010E03AF8E5
:1007B00016106A4602A800F0F5FC411C07D021780B
:1007C000890603D5E269391891420DD80744761C91
:1007D0002078800602D5E069B84205DDAE42E6DB4E
:1007E0003AF816000028E2D1A069C01BA06120469B
:1007F000FFF7E1FED8E90010CDE90010002017E076
:100800003AF818106A4602A800F0CCFCB0F1FF3F9D
:1008100081460BD000250DF1080B05E0D4E901213C
:100820001BF8050090476D1C4D45F7D308F10100FA
:10083000B0428046E4DB206A384420622046FFF75D
:10084000D0FEBDE8FF9F00006E3000002DE9F041B2
:100850008046D21D22F007020025D2E90002F529C8
:1008600015A614D0011E72F1000106DA0023D0EBA8
:10087000030063EB020211A608E0D8F800108B0712
:1008800001D50FA602E0490701D50EA601251146A4
:10089000002408F1240704E000F098F830323A55BB
:1008A000641C50EA0102F7D12B46324621464046ED
:1008B000BDE8F041FFF7B8BE000000002D000000C9
:1008C0002B0000002000000030B4002100F12404BF
:1008D00008E002F00705D208303542EA4372DB082F
:1008E0006554491C52EA0305F3D10468002310A2A1
:1008F000250707D5A40600D421B1C46901230DA2A0
:10090000641EC46130BCFFF78FBE10B5044621469B
:100910001068FFF780FE02462046BDE81040002325
:10092000D2E7D21D22F00701D1E90023CCE7000075
:100930000000000030000000F0B40D4601880905F9
:1009400002D5214C7C4402E01F4C7C440E34002133
:1009500000F1240608E002F00F071209E75D42EA01
:1009600003721B097754491C52EA0307F3D102783A
:100970000023120704D5702D06D009B102231134CB
:100980002246F0BCFFF750BE01231034F8E770B5E3
:1009900004460D4621461068FFF73DFE02462946F3
:1009A0002046BDE870400023C6E7D21D22F00703B1
:1009B000D3E90023C0E70368126843F02003036013
:1009C0000823C3610023B7E7D02E000030B5B0F193
:1009D0000A024FEA900E71F100034EEA817EB0EBFD
:1009E0000E0061EB91014FEA101E4EEA017E10EB02
:1009F0000E0041EB11114FEA102E4EEA016E10EB82
:100A00000E0041EB11214FEA104E4EEA014E10EB61
:100A10000E0041EB1141401841F100014FEAD000B6
:100A200040EA41704FEAD10110EB80054FEA8104A2
:100A300044EA907444EB01046D1944EB0404521B26
:100A4000A3414FF0000348BF0A3200D530BD401C1F
:100A500041F1000130BD70472DE9FF4F0C461E46A5
:100A60004FF0FF378BB0D2E90001DDF860800A90CB
:100A70008A46C1F30A5505B93D46002108464FF0A4
:100A80000000BAF1000F00F4400005DA00EB80002E
:100A90004FF4400101EA50004FEA9059B9F1010FBB
:100AA00000DDB9460A9850EA4A000ED044F61050CC
:100AB000A5F2FF3545432F14B8F1000F1ED0754243
:100AC000291E1EDDC9F100021CE0B8F1010F4FF034
:100AD000000001D0302103E0F24305E02154401C26
:100AE000B042FBDB30460022002121540B99C1F8B3
:100AF0000880C1E900200FB0BDE8F08FBD1B6D1C60
:100B0000DEE74A4600DA694206A800F0DDFB06ABE4
:100B100093E8070003AB83E8070050460A9900F00A
:100B200093FC8DE80700A0F500501F380090039853
:100B3000002D0ADD42F21F014A460844002303A9A2
:100B40000390684600F0FCFE09E0A0F500504A461C
:100B50001F38002303A90390684600F006FF8DE8C4
:100B600007000004000C03D04FF0FF30410800E004
:100B70001046B8F1000F03D00022009215461EE087
:100B8000751E05D4FFF722FF303262556D1EF9D570
:100B9000B3460122084302D000227F1C04E02078E3
:100BA000302801D100227F1E002A099784D01DE041
:100BB000112D07DAFFF70AFF303262556D1C50EA3B
:100BC0000102F5D1084302D00098C8B10EE000211F
:100BD000681E05E0235C625C63542254401E491C7D
:100BE0008142F7DBAB46A81B401E0990002004F8A9
:100BF0000B000B98099AC0F80880C0E9002B7AE72F
:100C000011264FF0000857E72DE9F04F88460446BB
:100C1000D21D22F0070191B0D1E90001CDE90A010E
:100C200002F06FF902460B98C00F01D02D2007E0AB
:100C30002068810701D52B2002E0202101EAC000B5
:100C4000032A099001D0072A05DB034641462046C6
:100C500000F0FAFA0BE12078800601D5E06900E0A7
:100C60000620B8F1650F814606D0B8F1660F18D09E
:100C7000B8F1670F70D131E00020B9F1110F009089
:100C800001DB112301E009F101030AAA01A90CA863
:100C9000FFF7E2FEDDE90C70002609F1010583464D
:100CA00047E001204B4600904FF000470AAA01A9F7
:100CB0000CA8FFF7D1FEDDE90DB00C995D460026CA
:100CC00010B909F101000D18B9EB050003D4C0F10A
:100CD000FF3609F10105A5EB09002BE0B9F1010F81
:100CE00001DA4FF001090020B9F1110F00904846D8
:100CF00001DD112300E003460AAA01A90CA8FFF7B1
:100D0000ABFEDDE90C704D460026834620780007D7
:100D10000AD4AB4500DA5D4601A8012D04DD411976
:100D200011F8011C302907D04F4502DA17F1040FE2
:100D300004DA012082460FE06D1EEEE7002F02DC90
:100D4000ED1B3E4403E0781CA84200DD7D1CB81B6F
:100D500000F1010A4FF000472078000703D4AA45AC
:100D600001DB4FF0FF3A0021B7F1004F0DF14308CE
:100D70008DF8431024D002202B23002F01DA7F426C
:100D80002D230A21021EA0F1010000DC5FB197FBB8
:100D9000F1FC97FBF1F201FB1C7C17460CF1300CC7
:100DA00008F801CDEEE7A8F10100037021880905DC
:100DB00001D5452100E06521A0F1010800F8011CE2
:100DC00009980FA9A1EB0807FF1D00B101204119E7
:100DD00001EBEA70A1693844081A401EA06120782E
:100DE000C00602D42046FFF7E6FB099828B1D4E9F3
:100DF00001219047206A401C20622078C00622D53D
:100E00002046FFF7D8FB1EE0002E04DBB34502DDD1
:100E100001A8805D00E03020D4E901219047206ADC
:100E2000401C2062761CAAF101005FEA000A0AD188
:100E300000F006FAC0680168405CD4E901219047DF
:100E4000206A401C2062281EA5F10105DCDC07E0B9
:100E5000D4E9012118F8010B9047206A401C206258
:100E6000381EA7F10107F3DC2046FFF7BAFB032089
:100E700011B041E62DE9F04F04460D46D21D22F097
:100E8000070089B0D0E900974846394602F039F8A2
:100E90000246F80F01D02D2307E02068810701D515
:100EA0002B2302E0202101EAC0038DF820300BB192
:100EB000012000E00020032A824601D0072A04DB3B
:100EC0002946204600F0C0F93FE12078800601D491
:100ED0000D2500E0E569C7F30A560D2D49DA00211A
:100EE0004FEA175B08464FF00000002F00F4400067
:100EF00007DA00EB80004FF4400100EBD07001EA0C
:100F000060008115012901DD4FF0FF3100224FEA19
:100F1000850CBCF1180F06D31346ACF118004FF046
:100F20008052C24003E04FF4801323FA0CF30CF11B
:100F30000C0CBCF1200F04D3ACF1200C09FA0CF01E
:100F400001E007FA0CF000294FF0004801DD18B964
:100F50000FE00ED140450CD319EB02095F4121B9D6
:100F6000404502D19F4329EA0209BBEB175F00D03D
:100F7000761C2088000502D57B48784402E07A4838
:100F80007844193808AA302302F80A30037C0AF1A1
:100F90000101002E0AF1020A53546A4602DC4FF0A6
:100FA000300101E04FF031014FF001088DF80010E1
:100FB00002D0A6F2FF3603E059EA470100D06B4E9B
:100FC000002D02DC2178090704D54FF002082E21FC
:100FD0008DF80110C44600210BE0C7F303433F0125
:100FE000C35C491C6D1E02F80830052908F1010890
:100FF00001DA002DF1DC00210CE000EB1973491C33
:101000001B786D1E082902F808304FEA091908F10B
:10101000010801DA002DF0DC21688B0602D516E00C
:10102000A8F10108E04505DD02EB080313F8013CD7
:10103000302BF5D0B8F1000F09DD02EB080313F8EF
:10104000013C2E2B03D1090701D4A8F10108002D82
:1010500005DD3E2102F808106D1E08F10108407CF4
:10106000002E02F8080008F1010804DA2D2076426B
:1010700002F8080002E02B2002F808000A214FF4D1
:101080007A70864208F101080BDB96FBF0F33033EF
:1010900002F8083096FBF0F308F1010800FB136634
:1010A00001E0642E0CDB642096FBF0F3303302F891
:1010B000083096FBF0F308F1010800FB136601E02D
:1010C0000A2E06DB96FBF1F0303002F8080008F13A
:1010D000010896FBF1F001FB1060303002F80800C7
:1010E000A16908F1010808EB050202EB0A00081AE1
:1010F000A0612078C00602D42046FFF75CFA216A7E
:1011000008AE01EB0A00206204E0D4E9012116F8E0
:10111000010B9047BAF1010AF7D22078C00602D538
:101120002046FFF748FA6E4609E016F8010B3E2804
:101130000FD0D4E901219047206A401C2062B8F109
:101140000108F2D22046FFF74CFA09B00320BDE8AF
:10115000F08F206A2844206203E0D4E90121302086
:1011600090476D1EEBD3F8E7D528000002FCFFFF87
:1011700010B5436913B1AFF3008001E0FFF708FB3E
:10118000012010BD128800F1240182840022C28453
:101190000122EDE711684FF0FF32E9E7007B00F034
:1011A0008000704770B516460C46054600F040F8C2
:1011B000036893F80101012806D0FF2C0FD8185DB1
:1011C00068B101202C7070BDD3F80701324621466A
:1011D00003F2071303442846BDE8704018474FF058
:1011E000FF3070BD754600F0EBF8AE46050069466D
:1011F000534620F00700854618B020B5FFF74AF89F
:10120000BDE820404FF000064FF000074FF0000807
:101210004FF0000B21F00701AC46ACE8C009ACE888
:10122000C009ACE8C009ACE8C0098D4670470000B1
:1012300010B500F005F8001D10BD00BF8D250000A1
:10124000004870477C0700202DE9F0411F46044606
:1012500003260168072A01F4006004DB08B116A523
:1012600005E016A503E008B115A500E015A521F0DD
:1012700010002060A069C01EA0610FB1401EA061D7
:101280002046FFF798F94FB1D4E90121384690473D
:10129000206A401C2062C01C206206E0206AFAE737
:1012A000D4E9012115F8010B9047761EF8D22046AB
:1012B000FFF797F9BDE8F0814E414E006E616E0078
:1012C000494E4600696E66002DE9F0478146164694
:1012D0008AB0354878440DC88DE80D00324878440E
:1012E000801C03AC0DC884E80D0041F69B30084417
:1012F000372190FBF1F290FBF1F5A5F1800501FBA0
:1013000012041B3C02D56442012000E00020DFF8FB
:1013100098A080460027FA44AAF1BE0A0EE0E00732
:101320000AD03246684607EB470101230AEB8101E8
:1013300000F01BFB8DE8070064107F1C002CEED131
:10134000194F7F44AE3F19E0E80715D007EB0410B2
:101350000DF1180A90E80E008AE80E00C068F0420D
:1013600001D1981908903246012306A903A800F07C
:10137000FCFA03AB83E807006D10641C002DE3D179
:101380004FF0010332466946B8F1000F03A802D0BE
:1013900000F0D6FA01E000F0E8FAC9E90001C9F866
:1013A00008200AB0BDE8F0870C26000010B50446FE
:1013B000AFF300802046BDE81040FEF756BF0000A6
:1013C000004870475C0700204FF0013C50F8042BA8
:1013D00051F8043B9A4221D1A2EB0C03934313EA48
:1013E000CC1317D150F8042B51F8043B9A4215D175
:1013F000A2EB0C03934313EACC130BD150F8042B4C
:1014000051F8043B9A4209D1A2EB0C03934313EA2F
:10141000CC13DBD04FF00000704700BFD01A01BAE8
:10142000B1FA81F101F0180122FA01F0CB40C1F1CB
:101430002001DBB2C0B2C01A2CFA01F3D11A9143D9
:1014400011EAC311E6D170475FEA400C08BF91F082
:10145000000F4FEA8C234FEAC12243EA51514FEA71
:101460001C5018BF00F5F0404FEA300018BF41F0A3
:1014700000415FEA6C5C00F02980BCF1FF3F08BFCF
:1014800040F080407047130C06BF12044FF0100C60
:101490004FF0000C130E04BF12020CF1080C130FD6
:1014A00004BF12010CF1040C930F04BF92000CF165
:1014B000020CD30F04BF52000CF1010C11464FF087
:1014C0000002A0F11F00A0EB0C00704711F0004FCC
:1014D00008BF704731F000413FF4D5AF0B0C06BF99
:1014E00009044FF0100C4FF0000C0B0E04BF090262
:1014F0000CF1080C0B0F04BF09010CF1040C8B0F4D
:1015000004BF89000CF1020CCB0F04BF49000CF1A1
:10151000010CCCF12003A0EB0C0022FA03F302FA39
:101520000CF241EA030100F10100704720F07F4C0A
:1015300080EA030023F07F47ACEB070303F57C53FD
:1015400000F0004003F1FF032DE980494FEA154BFD
:1015500009B44FEA144325EA0B4E24EA03480FF27C
:10156000042606EB132749083E785FEA320203FBA4
:101570000667C7F5000707FB06F64FEA54374FEA40
:10158000D64606F1020607FB066CCCF1005C4FEA7A
:101590001C472CEA074C07FB06F40CFB06F504EB92
:1015A00015464FEA961634BF00204FF000404FEA30
:1015B000D13706FB07FC4FEA1C4C0CFB0BF7D21B88
:1015C00003FB0CF761EB07010CFB0EF7B0EB0740D8
:1015D00072EB17420CFB08F734BFA2EB0742B2EBE9
:1015E000074261EB17414FEA0C444FEA910706FBB3
:1015F00007FC4FEA1C4C0CFB0BF7B0EBC74072EB3F
:10160000573203FB0CF734BFA2EBC742B2EBC74221
:1016100061EB57310CFB0EF7B0EBC70072EB577262
:101620000CFB08F734BFA2EBC702B2EBC70261EBB9
:101630005771039F4FEA816141EA921104EBCC0498
:101640004FEAD1374FEA826206FB07FC42EA90126A
:101650004FEA80604FEA1C4C0CFB0BF7D21B03FBDC
:101660000CF761EB07010CFB0EF7B0EB074072EBD8
:1016700017420CFB08F734BFA2EB0742B2EB07425C
:1016800061EB17414FEA8C554FEA910704EB9C241C
:1016900006FB07FC4FEA1C4C0CFB0BF7B0EBC740FA
:1016A00072EB573203FB0CF734BFA2EBC742B2EB2D
:1016B000C74261EB57310CFB0EF7B0EBC70072EB82
:1016C00057720CFB08F734BFA2EBC702B2EBC7029C
:1016D00061EB577115EB4C254FEA816141EA92119C
:1016E0004FEA82624FEAD13742EA901206FB07FCCA
:1016F00044F100044FEA80604FEA1C4C0CFB0BF7EE
:10170000D21B03FB0CF761EB07010CFB0EF7B0EBF0
:10171000074072EB17420CFB08F734BFA2EB0742FD
:10172000B2EB074261EB174115EB1C154FEA813113
:1017300041EA92414FEA823242EA90424FEA8030D7
:101740004FEA0C7644F1000448EA03434EEA0B48A2
:101750004FF0000EB2EB080C71EB030724BF62469A
:1017600039464EEB0E0E4FF0000B00185241494126
:101770004BEB0B0BB2EB080C71EB03077BF1000B8F
:1017800024BF624639464EEB0E0E4FF0000B001898
:10179000524149414BEB0B0BB2EB080C71EB0307C9
:1017A0007BF1000B24BF624639464EEB0E0E51EA28
:1017B000020718BF46F0010616EB0E7655F100023F
:1017C00054F1000103D5BDE88901BDE80088BDE8FA
:1017D0008901BDE80048B619524141EB0101A3F16E
:1017E0000103704780807F7E7D7C7B7A7978777675
:1017F00076757473727171706F6E6E6D6C6C6B6AEE
:101800006A6968686766666564646363626161608B
:10181000605F5F5E5E5D5D5C5C5B5B5A5A59595808
:101820005857575656555555545453535252525172
:10183000515050504F4F4F4E4E4D4D4D4C4C4C4BC8
:101840004B4B4A4A4A49494948484847474747460F
:10185000464645454544444444434343434242424B
:1018600042414141002B9C4630D477002BD01CB51F
:101870004FEA370703B44FF010004FF01001BAF1F0
:10188000000F06D0BCF1000FDCBF40F0080040F0B4
:1018900008014FF000000FBCBDE810400BF1010B38
:1018A000BBF1010F08BF5FEA170722BF12F1010267
:1018B00011F101014FF0004143F1000300F000403D
:1018C00043EA00007047F9D35708D0E746EA0646D6
:1018D00013F1400F4FEA16461FDD13F1200FDFBF53
:1018E00016430A46002120335B42BED0C3F12007D5
:1018F00046EA064602FA07F74FEA164646EA0706A0
:10190000C3F1200722FA03F201FA07F721FA03F1E3
:101910004FF0000342EA0702A7E746EA020646EA5A
:1019200006464FEA164646EA0106BCBF46EA0646A8
:10193000360C4FF000034FF000024FF0000194E727
:101940002DE9804C9A46934670B491E8380007C858
:1019500031EA400C48BF34EA430C03D5FFF7E6FDFB
:10196000FFF780FFF0BCBDE8008C2DE9804C9A4663
:10197000934670B491E8380007C810F0804F08BF54
:1019800013F0804F03D100F005F8FFF76BFFF0BCB8
:10199000BDE8008C20F07F4780EA030023F07F4CF5
:1019A00007EB0C03A3F57C5300F00040A3F1FE030A
:1019B00092F0000F00F0B38095F0000F00F07780F8
:1019C0002DE901494FEA11404FEA144621EA004847
:1019D00000FB06FC24EA064708FB06F607FB08F8AE
:1019E00000FB07F718EB06484CEB164C4FEA124B7E
:1019F00018EB07484FEA15464CEB174022EA0B4E0E
:101A00000BFB06FC25EA06470EFB06F607FB0EFE5F
:101A10000BFB07F71EEB064E4CEB164C4FF0000687
:101A20001EEB074E4CEB174B18EB0B0840F1000078
:101A300018EB0E0B58EB000840F100008F1A4FF026
:101A400000013CBFC943661B14BFB5EB040C002169
:101A50003CBFC943F61B4FEA17444EEA8E0E27EAF5
:101A600004454FEA1C4704FB07622CEA074C05FBC0
:101A700007F70CFB05F604FB0CFC16EB074642EBE4
:101A8000174216EB0C4642EB1C421BEB060658EBCA
:101A90000202414146EA9E0601D5BDE80189B61918
:101AA000524141EB0101A3F10103BDE801894FEA75
:101AB00014454FEA114724EA054621EA074C05FB85
:101AC00007F406FB07F70CFB06F105FB0CFC11EB1A
:101AD000074144EB17444FEA124711EB0C4144EB2A
:101AE0001C4422EA074C05FB07F206FB07F70CFB38
:101AF00006F605FB0CFC16EB074642EB174216EB0D
:101B00000C4642EB1C456A1854F1000148BF70476F
:101B1000B619524141EB0101A3F10103704795F061
:101B2000000F37D04FEA11424FEA144721EA02462C
:101B300024EA074C02FB07F106FB07F70CFB06F44F
:101B400002FB0CFC14EB074441EB17414FEA15472D
:101B500014EB0C4441EB1C4125EA074C02FB07F552
:101B600006FB07F70CFB06F602FB0CFC16EB074620
:101B700045EB174516EB0C4645EB1C42121951F18B
:101B8000000148BF7047B619524141EB0101A3F172
:101B9000010370474FEA14454FEA114724EA05460E
:101BA00021EA074C05FB07F106FB07F70CFB06F2E1
:101BB0004FF0000605FB0CFC12EB074241EB17410E
:101BC00012EB0C4251EB1C4148BF7047921841EB9D
:101BD0000101A3F10103704700BFFEE710B51E48E5
:101BE000006840F2EE21884210DC1C480068884200
:101BF0000CDC19480068B0F5FA7F07DD174800686B
:101C0000B0F5FA7F02DD142000F00AF912480068EE
:101C1000B0F57A7F11DC11480068B0F57A7F0CDCF2
:101C20000D48006840F2EE21884206DD0B4800684E
:101C3000884202DD1E2000F0F3F807480068B0F586
:101C40007A7F07DD05480068B0F57A7F02DD28203D
:101C500000F0E6F810BD0000400000204400002025
:101C600010B50948007809490978401A08490870F0
:101C700008460078322805DB20231022182108208E
:101C800000F0D6FE10BD00004400002040000020FF
:101C90004800002010B50948007809490978401A21
:101CA0000849087008460078322805DB10232022F6
:101CB0000821182000F0A8FE10BD00004000002000
:101CC000440000204900002010B50B480068B0F522
:101CD000FA7F10DC09480068B0F5FA7F0BDC064893
:101CE0000068B0F5C87F06DD04480068B0F5C87F1D
:101CF00001DD00F01DFC10BD40000020440000206C
:101D000070472DE9F04102460025002600200023FF
:101D10000024002791F803C00CF00F0591F803C0D0
:101D20000CF0100CBCF1000F03D091F802C04CEA8B
:101D3000050591F800C0BCF1000F31D014680020F7
:101D40002BE04FF0010C0CFA00F3B1F800C00CEAE4
:101D500003069E4220D183004FF00F0C0CFA03F7CC
:101D6000BC4305FA03FC4CEA040491F803C0BCF13F
:101D7000280F06D14FF0010C0CFA00FCC2F814C079
:101D80000AE091F803C0BCF1480F05D14FF0010CF7
:101D90000CFA00FCC2F810C0401C0828D1D3146013
:101DA000B1F800C0BCF1FF0F34DD546800202EE014
:101DB00000F1080C4FF0010808FA0CF3B1F800C06C
:101DC0000CEA03069E4221D183004FF00F0C0CFA5F
:101DD00003F7BC4305FA03FC4CEA040491F803C082
:101DE000BCF1280F05D100F1080C08FA0CF8C2F874
:101DF000148091F803C0BCF1480F07D100F1080C22
:101E00004FF0010808FA0CF8C2F81080401C0828AE
:101E1000CED35460BDE8F0814161704701617047E5
:101E200010B5044660B200F005F960B200F022F986
:101E300060B200F043F960B200F064F910BD0146F1
:101E4000012002E000EB800250000A1EA1F1010314
:101E5000D9B2F7D170472DE9F04781460D461646B5
:101E60001F46DDF8208000240CE000BF40214846DA
:101E700000F074FF0128F9D1295D484601F03BF8D4
:101E8000601CC4B2B442F0DB00241BE000BF402160
:101E9000484600F063FF0128F9D1A8EB0401491E70
:101EA000C8B2FFF7CCFFB7FBF0F00A21B0FBF1F2AC
:101EB00001FB120000F1300A5146484601F01BF8C0
:101EC000601CC4B24445E1DB00BF4021484600F03D
:101ED00045FF0128F9D1FF21484601F00CF800BF69
:101EE0004021484600F03AFF0128F9D1FF21484639
:101EF00001F001F800BF4021484600F02FFF012803
:101F0000F9D1FF21484600F0F6FFBDE8F0872DE942
:101F1000F04780460D4616461F46DDF82090002407
:101F20000CE000BF4021404600F018FF0128F9D125
:101F3000295D404600F0DFFF601CC4B2B442F0DB14
:101F400000BF4021404600F009FF0128F9D12221BD
:101F5000404600F0D0FF00240CE000BF4021404686
:101F600000F0FCFE0128F9D1395D404600F0C3FFC6
:101F7000601CC4B24C45F0DB00BF4021404600F07D
:101F8000EDFE0128F9D12221404600F0B4FF00BF48
:101F90004021404600F0E2FE0128F9D1FF214046F1
:101FA00000F0A9FF00BF4021404600F0D7FE012805
:101FB000F9D1FF21404600F09EFF00BF402140467E
:101FC00000F0CCFE0128F9D1FF21404600F093FF3C
:101FD000BDE8F08700BFFEE710B500F003F810BDC4
:101FE00000BFFEE71CB501210C2000F0A1F9102074
:101FF0008DF8070041F63000ADF8040003208DF89D
:10200000060001A90948FFF77CFE10208DF80300A7
:102010004FF47040ADF8000003208DF802006946CF
:102020000348FFF76EFE00F0D5F81CBD0008014024
:10203000000C014010B50446002C0BDB10210C48AD
:10204000FFF7ECFE20210A48FFF7E6FEA0B200F001
:1020500025F90BE010210648FFF7DEFE2021044899
:10206000FFF7DCFE614288B200F018F910BD0000F5
:102070000008014010B50446002C0DDB4FF4006150
:102080000D48FFF7CBFE4FF480510B48FFF7C4FE1D
:10209000A0B200F00DF90DE04FF400610648FFF723
:1020A000BBFE4FF480510448FFF7B8FE614288B28E
:1020B00000F0FEF810BD00000008014010B5044615
:1020C000002C0DDB4FF480510D48FFF7A7FE4FF4B5
:1020D00000510B48FFF7A0FEA0B200F0F3F80DE0AE
:1020E0004FF480510648FFF797FE4FF40051044823
:1020F000FFF794FE614288B200F0E4F810BD0000E2
:10210000000C014010B50446002C0DDB4FF480415B
:102110000D48FFF783FE4FF400410B48FFF77CFEAC
:10212000A0B200F0D9F80DE04FF480410648FFF767
:1021300073FE4FF400410448FFF770FE614288B21D
:1021400000F0CAF810BD0000000C0140704700000C
:1021500070B5002100230F22C47804B3154C246805
:1021600004F4E064C4F5E064210AC1F10403CA4048
:10217000447804FA03F184781440214309010E4C99
:102180000678A155047804F01F050124AC400578B9
:102190006D11AD0005F1E025C5F8004109E00478B6
:1021A00004F01F050124AC40044D0678761145F873
:1021B000264070BD0CED00E000E400E080E100E0AE
:1021C00002490143024A1160704700000000FA050D
:1021D0000CED00E000B589B00121022000F088F884
:1021E00001210C2000F0A4F818208DF82300C02055
:1021F000ADF8200003208DF8220008A92448FFF73D
:1022000080FD18208DF81F000320ADF81C008DF80C
:102210001E0007A91F48FFF774FD1F4800F059FA78
:102220000020ADF81600ADF812006320ADF81400E0
:102230002320ADF8100000208DF8180004A91648DE
:1022400000F090FB684600F077FB6020ADF80000DE
:102250000020ADF808000120ADF802000020ADF824
:10226000060069460C4800F03BFA69460A4800F04F
:1022700083FA6946084800F0D1FA6946064800F03A
:102280001DFB0121044800F0FEF909B000BD00006B
:1022900000080140000C01400004004010B5044655
:1022A0002146024800F052FB10BD0000000400402F
:1022B00010B504462146024800F04AFB10BD00005C
:1022C0000004004010B504462146024800F042FBDD
:1022D00010BD00000004004010B50446214602482D
:1022E00000F03AFB10BD0000000400407047000001
:1022F00029B1064AD2690243044BDA6104E0034A79
:10230000D2698243014BDA6170470000001002403D
:1023100029B1064A12690243044B1A6104E0034AD8
:1023200012698243014B1A6170470000001002409D
:1023300029B1064A92690243044B9A6104E0034AB8
:1023400092698243014B9A6170470000001002407D
:1023500029B1064AD2680243044BDA6004E0034A1A
:10236000D2688243014BDA607047000000100240DF
:1023700030B500210022002400232D4D6D6805F0AA
:102380000C0121B1042905D0082923D105E0294DEC
:10239000056022E0274D05601FE0254D6D6805F4BE
:1023A0007012234D6D6805F48034022505EB9242CE
:1023B0001CB9214D554305600BE01D4D6D6805F4BA
:1023C00000351DB11C4D5543056002E0194D5543C4
:1023D000056002E0174D056000BF00BF144D6D6839
:1023E00005F0F0010909154D6B5C0568DD4045609D
:1023F0000F4D6D6805F4E061090A104D6B5C45688E
:10240000DD4085600A4D6D6805F46051C90A0B4DC9
:102410006B5C4568DD40C560054D6D6805F4404165
:10242000890B074D6B5CC568B5FBF3F5056130BDE5
:102430000010024000127A0000093D001400002044
:1024400024000020704710B500F002F810BD000015
:102450000CB50020019000903348006840F48030B3
:102460003149086000BF3048006800F40030009037
:102470000198401C0190009818B90198B0F5A06F20
:10248000F1D12948006800F4003010B1012000901B
:1024900001E0002000900098012843D12348006803
:1024A00040F01000214908600846006820F0030051
:1024B00008600846006840F0020008601A4840685A
:1024C000194948600846406848600846406840F43A
:1024D000806048600846406820F47C1048600846E8
:1024E000406840F4E81048600846006840F080709A
:1024F000086000BF0C48006800F000700028F9D0A8
:102500000948406820F003000749486008464068D1
:1025100040F00200486000BF0348406800F00C0033
:102520000828F9D10CBD0000001002400020024034
:1025300010B50020FFF77EFD0020FFF79BFD002077
:10254000FFF7BCFD0020FFF7DDFD10BD042808D11A
:102550004FF0E021096941F004014FF0E0221161E0
:1025600007E04FF0E021096921F004014FF0E0227B
:10257000116170477047000010B51348006840F0C3
:1025800001001149086008464068104908400E499A
:102590004860084600680E4908400B490860084634
:1025A000006820F4802008600846406820F4FE009F
:1025B00048604FF41F008860FFF745FF4FF0006050
:1025C0000449086010BD0000001002400000FFF840
:1025D000FFFFF6FE08ED00E010B50121880700F0CE
:1025E0005EF870B10748008840F400400549088053
:1025F0000121880700F044F800214FF0804000F0EE
:1026000042F810BD340000207FB505460C4601217C
:102610000846FFF76DFEADF80450ADF8004000200D
:10262000ADF80600ADF8020069464FF0804000F0BA
:1026300099F901221146900700F042F8012188071C
:1026400000F021F81C208DF80C0000208DF80D0002
:1026500002208DF80E0001208DF80F0003A8FFF76F
:1026600077FD7FBD10B50121044800F018F818B1BE
:102670000121024800F004F810BD000000080040ED
:10268000CA430282704721B1028842F001020280EF
:1026900004E002884FF6FE731A400280704730B59E
:1026A0000246002000230024158A05EA01039589CB
:1026B00005EA010413B10CB1012000E0002030BD97
:1026C0001AB183890B43838102E083898B43838121
:1026D000704701894FF6F872114001817047000080
:1026E00070B5002400220023058C4FF6FE7635409D
:1026F0000584028C8388048B4FF68F752C40B51EA1
:102700002C400D882C43751E2A400D892A434D8884
:102710002A43144DA8420BD0134DA84208D0134DA4
:10272000A84205D0124DA84202D0124DA84213D1A2
:102730004FF6F7752A404D892A434FF6FB752A401C
:102740008D882A434FF6FF652B404FF6FF552B40EF
:102750008D892B43CD892B4383800483CD88858647
:10276000028470BD002C0140003401400040014053
:10277000004401400048014070B5002400220023BD
:10278000058C4FF6EF7635400584028C8388048BE8
:1027900048F6FF752C404FF6FF452C400D884FF64C
:1027A000FF7606EA05252C434FF6DF752A400D8992
:1027B00006EA05152A434D8806EA05152A43154DF4
:1027C000A84202D0144DA8421DD14FF67F752A4071
:1027D0004D894FF6FF7606EA05152A434FF6BF7579
:1027E0002A408D8806EA05152A434FF6FF352B400F
:1027F0004FF2FF752B408D8906EA85052B43CD8965
:1028000006EA85052B4383800483CD8805870284EF
:1028100070BD0000002C01400034014070B5002460
:1028200000220023058C4FF6FF6635400584028C9C
:102830008388848B4FF68F752C404FF6FC752C40A7
:102840000D882C434FF6FF552A400D894FF6FF7631
:1028500006EA05252A434D8806EA05252A43154D33
:10286000A84202D0144DA8421DD14FF2FF752A4054
:102870004D894FF6FF7606EA05252A434FF6FF35C8
:102880002A408D8806EA05252A434EF6FF752B401F
:102890004DF6FF752B408D8906EA05152B43CD8932
:1028A00006EA05152B4383808483CD8885870284BF
:1028B00070BD0000002C01400034014070B50022C2
:1028C00000230024058C4EF6FF7635400584038CEA
:1028D0008488828B48F6FF752A404FF6FF452A40D0
:1028E0000D884FF6FF7606EA05252A434DF6FF755B
:1028F0002B400D8906EA05352B434D8806EA053540
:102900002B430B4DA84202D00A4DA84208D14BF6EA
:10291000FF752C408D894FF6FF7606EA85152C430E
:1029200084808283CD88A0F84050038470BD00006D
:10293000002C014000340140002101804180818051
:10294000C180018141818181C18170478186704749
:102950000187704781877047A0F8401070478184D5
:1029600070470000002202881D4B98420ED01D4B7C
:1029700098420BD0B0F1804F08D01B4B984205D045
:102980001A4B984202D01A4B984204D14FF68F73DB
:102990001A404B881A43174B984207D0164B98425F
:1029A00004D04FF6FF431A40CB881A4302808B882D
:1029B00083850B8803850A4B98420BD0094B9842BC
:1029C00008D00E4B984205D00D4B984202D00D4BCB
:1029D000984201D10B7A038601238382704700005D
:1029E000002C014000340140000400400008004079
:1029F000000C004000100040001400400040014066
:102A000000440140004801402DE9F04104460D46D4
:102A100016461F4660B2FFF70DFB68B2FFF72AFBB0
:102A200070B2FFF74BFB78B2FFF76CFBBDE8F081AB
:102A30002DE9F04104460D4616461F4660B2FFF7E9
:102A4000F9FA68B2FFF716FB70B2FFF737FB78B2FE
:102A5000FFF758FBBDE8F08110B540F2255114484E
:102A600000F089F910B3124800F040FA1149124AF7
:102A70001278885408460078A52803D000200E4913
:102A8000087004E00C480078401C0B4908700A48A4
:102A9000007803280AD1002007490870054880788B
:102AA0000449497840EA01200449086010BD00004B
:102AB000004C00403B0000203F000020440000206C
:102AC00010B540F22551134800F055F900B31148F4
:102AD00000F00CFA10490860084600680D2810D074
:102AE000084600680A280CD00846006830380B49B0
:102AF0000B4A127841F8220009480078401C084926
:102B00000870054800680D2802D1012005490870A9
:102B100010BD0000005000404C000020CC050020FB
:102B2000500000205100002010B540F225512148EE
:102B300000F021F900283BD01E4800F0D7F91E49CB
:102B400008701E48008800F4004088BB1B480088BD
:102B500000F4804070B1084600780A2803D00020B5
:102B60001649088024E01548008840F400401349C5
:102B700008801DE0104800780D2806D10F48008815
:102B800040F480400D49088012E00B4800780B4962
:102B90000988C1F30D010A4A505408480088401CB6
:102BA0000649088008460088C72801DD0020088003
:102BB00010BD00000038014032000020300000202D
:102BC0005400002010B540F22551154800F0D3F80C
:102BD00028B3134800F08AF91249134A127888542E
:102BE00008460078A52803D000200F49087004E0AB
:102BF0000D480078401C0C4908700B4800780328E9
:102C00000DD10020084908700648807805494978A8
:102C100040EA01200549086008460068086010BDC8
:102C200000440040380000203E000020400000200A
:102C300010B540F22551184800F09DF818B3164819
:102C400000F054F9154908701548008800F4004058
:102C5000C8B913480088B0F5167F15DA00214FF087
:102C60008040FFF77CFE0E48008818B901218807D4
:102C7000FFF709FD09490A7809490888411C084BF2
:102C8000198008490A5405E00548008840F40040CE
:102C90000349088010BD00000048004036000020B5
:102CA000340000201C01002021B1828942F400522E
:102CB000828104E082894DF6FF731A408281704759
:102CC00010B504462048844209D101218803FFF74A
:102CD0003FFB00214FF48040FFF73AFB32E01B48F6
:102CE000844209D101214804FFF712FB00214FF46F
:102CF0000030FFF70DFB25E01548844209D1012182
:102D00008804FFF705FB00214FF48020FFF700FB4C
:102D100018E01048844209D10121C804FFF7F8FAED
:102D200000214FF40020FFF7F3FA0BE00A48844239
:102D300008D101210805FFF7EBFA00214FF48010BC
:102D4000FFF7E6FA10BD00000038014000440040E3
:102D500000480040004C0040005000400246002067
:102D6000B1F5007F00D100BF13880B400BB10120EB
:102D700000E00020704770B50246002400230025C3
:102D8000002040F66A16B14200D100BFC1F34215DF
:102D900001F01F03012606FA03F3012D02D19689E3
:102DA000334006E0022D02D1168A334001E0968AB4
:102DB00033400C12012606FA04F41688344013B18D
:102DC0000CB1012000E0002070BDF0B503460024E6
:102DD00000260025002040F66A17B94200D100BF46
:102DE0001846C1F3421401F01F06012707FA06F541
:102DF000012C01D10C3004E0022C01D1103000E094
:102E000014301AB107682F43076002E00768AF4328
:102E10000760F0BD2DE9F04786B005460E46002458
:102E2000A24600BFA1460027B08900B100BF2F46CF
:102E30002C8A4CF6FF700440F08804432C82AC8945
:102E40004EF6F3100440B088318908437189084375
:102E50000443AC81AC8A4FF6FF400440B089044380
:102E6000AC8201A8FFF784FA1F48874202D1DDF83F
:102E700010A001E0DDF80CA0A88900F4004040B1EA
:102E80000AEBCA0000EB0A1031684900B0FBF1F808
:102E900007E00AEBCA0000EB0A1031688900B0FBBA
:102EA000F1F86420B8FBF0F004012009642101FB73
:102EB0001089A88900F4004040B1322000EBC9001D
:102EC000B0FBF1F000F00700044308E0322000EB13
:102ED00009106421B0FBF1F000F00F0004432C81D5
:102EE00006B0BDE8F0870000003801400146888840
:102EF000C0F308007047C1F308028280704700BF2A
:102F0000FEE7490050EAC12018BF04204A0D18BF4F
:102F100040F0010040F2FF72B2EB515F08BF40F099
:102F20000200012808BF0520704730380A2801D266
:102F3000012070470020704700BF704710B56FF048
:102F40000400FFF703FB0A4800680A49B0FBF1F0F0
:102F5000094908700846007800EB4001C1EBC01039
:102F60004FF6FF7101EAC0000449088010BD00005F
:102F70000000002000127A00280000202A00002013
:102F80000146114A12884A434FF0E0235A61002259
:102F90009A611A46126942F001021A6100BF4FF0AD
:102FA000E022106900F001021AB100F48032002A18
:102FB000F5D04FF0E022126922F001024FF0E02339
:102FC0001A6100229A6170472A00002070B50446F9
:102FD00000250948008800F4004058B10020064947
:102FE0000988C1F30E01054A505421461046FDF7E9
:102FF000ADFA0546284670BD340000201C010020B3
:103000002DE9F04106460D461446002700201349DD
:103010000880314612A000F0E5F9E5B1DCB113E01B
:103020000A20FFF7ADFF0D48008800F4004058B1BA
:103030002846FFF7CBFF20B129460BA0FDF750F93A
:1030400006E0002005490880601E80B2041EE7D11A
:1030500000BF04B901273846BDE8F08134000020E4
:1030600025730D0A0000000061636B3A25730D0A99
:10307000000000007CB505460C466E460020134952
:103080000880294612A000F0ADF9ECB117E00A2043
:10309000FFF776FF0D48008800F4004078B100206B
:1030A0000A490988C1F30E010A4A505416463146AE
:1030B00009A0FDF715F900200449088003E0601E0F
:1030C00080B2041EE3D100BF30467CBD3400002036
:1030D000257300001C01002061636B3A25730D0A03
:1030E0000000000010B532221CA11DA0FFF788FFD0
:1030F00014221EA11FA0FFF783FF4FF47A70FFF781
:103100003FFF4FF47A70FFF73BFF4FF47A70FFF701
:1031100037FF4FF47A70FFF733FF00BF4FF47A7236
:1031200016A119A0FFF76CFF0028F7D114220BA1FC
:103130001EA0FFF765FF00BFC8221FA120A0FFF758
:103140005FFF0028F8D1C82204A128A0FFF758FF8C
:10315000322202A129A0FFF753FF10BD4F4B000000
:1031600041542B43574D4F44453D310072656164D6
:103170007900000041542B525354000057494649EE
:1031800020474F542049500041542B43574A415047
:103190003D22313437323538333639222C22313220
:1031A00033343536373830302200000041542B4359
:1031B00049504D55583D3000434F4E4E4543540005
:1031C00041542B43495053544152543D225443508F
:1031D000222C223139322E3136382E3231322E31F4
:1031E0003531222C353635360000000041542B4352
:1031F00049504D4F44453D310000000041542B43A0
:10320000495053454E44000000BF054A128802F061
:103210004002002AF9D0C2B2014B1B1D1A80704730
:103220000038014008B54FF4A060FEF7C9FFFEF773
:10323000D9FEFFF783FEFEF7CFFE4FF4E13000F03A
:10324000F3F94FF4E13000F0F5F84FF4E13000F01D
:103250003DFA4FF4E13000F03FF94FF4165000F022
:103260008FF9FFF73FFF322134A0FFF703FF322130
:1032700036A0FFF7FFFE5FE03848016838A0FDF791
:103280002FF83B4801683BA0FDF72AF832213DA00A
:10329000FFF7F0FE4FF47A70FFF772FE3E480078B9
:1032A000012815D1002407E03C4850F824103CA028
:1032B000FDF716F8601CC4B23A4800788442F3DB8C
:1032C000002035490870374908701FA0FDF708F83D
:1032D00035480078962807DA34480078962803DACB
:1032E000FEF7F2FCFEF77AFC2F480078322803DA6A
:1032F0002E480078322803DBFEF7B2FCFEF7CAFC4A
:10330000042000901A48008883B2072228A12B4885
:10331000FEF7A1FD042000901048008883B2072228
:1033200027A12648FEF797FD102028A307222BA1EE
:1033300000902248FEF7EBFD9EE700005749464902
:10334000C1ACBDD3B3C9B9A60D0A0000544350C1E6
:10335000ACBDD3B3C9B9A60D0A00000040000020DF
:1033600064697374616E63654C3A25640D0A0000EC
:103370004400002064697374616E6365523A256489
:103380000D0A0000B3ACC9F9B2A8B2E2BEE0B3C9FD
:10339000B9A60D0A0000000051000020CC05002055
:1033A0002564000050000020480000204900002053
:1033B0006E312E76616C3D0D0A0000000038014030
:1033C0006E322E76616C3D0D0A000000B8A3BDA8D8
:1033D000BDADCFC4D1A7D4BA0D0A000074322E748B
:1033E00078743D000FB438B505A800900F48009AD6
:1033F0000499FCF763FF002000900C48FDF7B8F833
:1034000085B200240DE000BF40210948FFF7A6FC6B
:103410000028F9D00548015D0548FFF76CFD601CE8
:1034200084B2AC42EFDB38BC5DF814FB74030020BF
:103430000048004010B586B0044601210420FEF784
:1034400077FF01214804FEF753FF0420ADF8140074
:1034500003208DF8160018208DF8170005A91C48C8
:10346000FEF74FFC0820ADF8140004208DF817007B
:1034700005A91748FEF745FC26208DF8000003201B
:103480008DF8010004208DF8020001208DF8030062
:103490006846FEF75DFE01940020ADF80800ADF827
:1034A0000A00ADF80C00ADF810000C20ADF80E00CD
:1034B00001A90848FFF7AEFC012240F2255105485A
:1034C000FFF783FC01210348FFF7EEFB06B010BDB8
:1034D000000801400044004010B586B004460121B8
:1034E0001020FEF725FF0121C804FEF701FF4FF46D
:1034F0008060ADF8140003208DF8160018208DF8B8
:10350000170005A91C48FEF7FCFB4FF40060ADF85E
:10351000140004208DF8170005A91748FEF7F1FBE9
:1035200034208DF8000003208DF801008DF8020092
:1035300001208DF803006846FEF70AFE0194002082
:10354000ADF80800ADF80A00ADF80C00ADF81000B9
:103550000C20ADF80E0001A90848FFF75BFC012222
:1035600040F225510548FFF730FC01210348FFF7E1
:103570009BFB06B010BD000000100140004C004055
:1035800010B586B0044601213020FEF7D1FE01219E
:103590000805FEF7ADFE4FF48050ADF8140003208F
:1035A0008DF8160018208DF8170005A91B48FEF7A6
:1035B000A8FB0420ADF814008DF8170005A91848E1
:1035C000FEF79FFB35208DF8000003208DF80100E9
:1035D00001208DF802008DF803006846FEF7B8FD63
:1035E00001940020ADF80800ADF80A00ADF80C0019
:1035F000ADF810000C20ADF80E0001A90948FFF746
:1036000009FC012240F225510648FFF7DEFB0121AB
:103610000448FFF749FB06B010BD00000010014050
:10362000001401400050004010B586B0044601214E
:1036300044F20400FEF77CFE4FF40070ADF8140075
:1036400003208DF8160018208DF8170005A91D48D5
:10365000FEF757FB4FF48060ADF8140004208DF89E
:10366000170005A91748FEF74CFB25208DF8000030
:1036700003208DF8010002208DF8020001208DF852
:1036800003006846FEF764FD01940020ADF80800D1
:10369000ADF80A00ADF80C00ADF810000C20ADF844
:1036A0000E0001A90848FFF7B5FB012240F22551A1
:1036B0000548FFF78AFB01210348FFF7F5FA06B03A
:1036C00010BD0000000801400038014010B586B070
:1036D000044601210820FEF72BFE01218804FEF795
:1036E00007FE2B48FFF7ECFA4FF48060ADF81000AE
:1036F00003208DF8120018208DF8130004A9254826
:10370000FEF7FFFA4FF40060ADF8100004208DF8CA
:10371000130004A91F48FEF7F4FA00940020ADF846
:103720000400ADF80600ADF80800ADF80C000C2060
:10373000ADF80A0069461648FFF76CFB01211448F2
:10374000FFF7B2FA012240F225511148FFF73DFB85
:1037500027208DF8140002208DF8150003208DF825
:10376000160001208DF8170005A8FEF7F1FC41F6C0
:103770001F4140F2E730FEF747FF0020064908806E
:1037800000214FF08040FEF77EFF06B010BD000024
:1037900000480040000C01403400002010B5002912
:1037A0000AD00878002807D005487844FDF70CFEB9
:1037B000002801D0002010BD0248784410BD000050
:1037C000720100006A01000010B500290AD00878D3
:1037D000002807D005487844FDF7F6FD002801D001
:1037E000002010BD0248784410BD000062010000B6
:1037F0005A010000FDF708BAFDF73CBB04000008C1
:1038000000000000000000020001000010000000A5
:10381000000000000000000030313233343536370C
:103820003839414243444546403058003031323304
:103830003435363738396162636465664030780004
:103840003031323334353637383961626364656616
:1038500078700030313233343536373839414243AD
:10386000444546585000000002400000000000A0FF
:103870000000000005400000000000C8000000003B
:103880000C4000000000409C0000000019400000B7
:103890000020BCBE0000000034400000BFC91B8EE9
:1038A00000000004B5400000504BCFD06607E2CFC7
:1038B000010000006C4100003E8251AADFEEA734F7
:1038C00001000000D9420000DCB5A0E23A301F97A9
:1038D000FFFFFFFFB4450000FD25A0C8E9A3C14FCD
:1038E000FFFFFFFFFF3F000000000080000000001E
:1038F000FF3F00000000008000000000483A000880
:1039000000000020540000006C0100089C3A0008F0
:10391000540000206C0D0000880100081C0000000D
:1039200043000000F8FFFFFF0C0000000E00000045
:103930000F0000002E0000001001000043000000F6
:10394000F8FFFFFF004040404040404040404141C0
:103950004141414040404040404040404040404064
:1039600040404040400502020202020202020202FE
:1039700002020202022020202020202020202002FB
:10398000020202020202909090909090101010108B
:103990001010101010101010101010101010101027
:1039A00002020202020288888888888808080808BB
:1039B0000808080808080808080808080808080887
:1039C00002020202400000000000000000000000AF
:1039D00000000000000000000000000000000000E7
:1039E00000000000000000000000000000000000D7
:1039F00000000000000000000000000000000000C7
:103A000000000000000000000000000000000000B6
:103A100000000000000000000000000000000000A6
:103A20000000000000000000000000000000000096
:103A30000000000000000000000000000000000086
:103A4000000000000000000000A24A040000000086
:103A5000000000000102030406070809000000003E
:103A60000102030401020304060708090204060810
:103A70000000000000000000000000000000000046
:103A80000000000000000000000000000000000036
:0C3A90000000000000000000000000002A
:0400000508000131BD
:00000001FF
