:020000040800F2
:10000000180C002035020008511F0008591D000877
:10001000E51D0008951B0008132E000800000000D5
:10002000000000000000000000000000A5250008FE
:10003000991B0008000000004D2400082527000837
:100040004F0200084F0200084F0200084F0200084C
:100050004F0200084F0200084F0200084F0200083C
:100060004F0200084F0200084F0200084F0200082C
:100070004F0200084F0200084F0200084F0200081C
:100080004F0200084F0200084F0200084F0200080C
:100090004F0200084F0200084F0200084F020008FC
:1000A0004F0200084F0200084F0200084F020008EC
:1000B000892700084F0200084F0200084F0200087D
:1000C0004F0200084F0200084F0200084F020008CC
:1000D0004F020008A92A00084F020008452B00081B
:1000E0004F0200084F0200084F02000800F002F81B
:1000F00000F090F80AA090E8000C82448344AAF132
:100100000107DA4501D100F085F8AFF2090EBAE82F
:100110000F0013F0010F18BFFB1A43F0010318473B
:10012000F83B0000183C0000103A24BF78C878C1A2
:10013000FAD8520724BF30C830C144BF04680C60ED
:10014000704700000023002400250026103A28BF35
:1001500078C1FBD8520728BF30C148BF0B60704739
:100160006E2900F03F82702900F0A983662903F010
:100170005782652903F05482672903F0518261296F
:1001800003F0508203681B0A28BF41F080016929EF
:1001900000F0EC81642900F0E981752900F0E68126
:1001A0006F2900F03683782900F07583E92900F083
:1001B000D182E42900F0CE82F52900F0CB82EF292C
:1001C00000F03383F82900F074830368DB0928BF4B
:1001D00041F08001632900F04082732900F04582DC
:1001E000E32900F0AD87F32900F0B28700207047C3
:1001F0001FB501F003F804000020002103F0FAF914
:10020000401C60600020002103F0DEF9E0601FBDAB
:1002100010B510BD00F0C4FF1146FFF7E9FF02F072
:1002200085FF01F0A1F803B4FFF7F2FF03BC02F071
:100230000DFE00000948804709480047FEE7FEE739
:10024000FEE7FEE7FEE7FEE7FEE7FEE7FEE7FEE786
:1002500004480549054A064B704700002927000855
:10026000ED00000818060020180C002018080020D7
:1002700018080020704700001CB50C46064B7B4454
:1002800069460090204600F0C6F904460020694601
:1002900000F0D4F920461CBDBB0300000FB4044994
:1002A00010B503AA029800F0E5F910BC5DF814FB44
:1002B0002C00002070B50C460546012A05D0287890
:1002C000800600D5EA69002302E0012305E05B1CFB
:1002D000934202D2E05C0028F9D1A869E618C01A5E
:1002E000A861286A18442862284600F006F904E04C
:1002F000D5E9012114F8010B9047B442F8D3284600
:1003000000F011F970BD00002DE9F05F8946044648
:100310004FF0000ADFF874B1FB44C0F820A020467B
:10032000E1688847002874D0252806D0D4E9012147
:100330009047206A401C2062F1E700265F46204675
:10034000E16888472028054607DB312D05D278195A
:1003500010F8200C08B10643F1E7B00701D526F0EC
:100360000406C4F81CA00027C4F818A02A2D09D040
:10037000284602F064FD38B304EB8708303DC8F826
:10038000185019E059F8041B204604EB87029161CC
:10039000E1688847012F054618D1E069002820DA76
:1003A00026F020061DE0D8F8180000EB800005EBD1
:1003B00040003038C8F818002046E16888470546F4
:1003C00002F03DFD0028EED1012F0AD02E2D08D1DC
:1003D0002046E16888477F1C0546022F46F020062C
:1003E000C4DBA069002803DA404246F00106A061A0
:1003F000F00701D026F010066C2D0BD0682D09D027
:100400004C2D39D06A2D35D0742D35D07A2D33D07E
:1004100016E038E0E1682F4620468847B842054696
:1004200009D16C2F26D04FF48060E1680643204646
:100430008847054604E06C2F1AD04FF480700643BD
:100440000DB3A5F14100192802D8203546F4006605
:100450004A462946204626604E46FFF781FE80B177
:1004600001280BD0F61D26F0070000F1080956E719
:100470004020E4E78020D8E70020D6E706F1040911
:100480004DE7284652E7206ABDE8F09FFC3800009F
:1004900030B505460B462A4613F8014B12F8010BFE
:1004A00008B1A042F8D01CB1002802D06D1CF1E7C1
:1004B000284630BD10B5431C02E010F8011B71B195
:1004C0008107FAD14FF0013202C88C1A8C4314EA2A
:1004D000C211F9D0C01A0A0603D0C01E10BDC01A3E
:1004E00010BD0A0401D0801E10BD0902FCD0401EC0
:1004F00010BD704770477047704770B504468569F6
:100500000068C10601D5302600E02026C00707D0CC
:1005100070BDD4E9012130469047206A401C20621A
:100520006D1EF6D570BD70B5044685690078C007AC
:1005300007D170BDD4E9012120209047206A401CDA
:1005400020626D1EF6D570BD09684A0501D540B21E
:100550007047C905FCD500B2704709684A0501D546
:10056000C0B27047C905FCD580B270472DE9F04193
:100570000646002410687529314616A510D0FFF7ED
:10058000E3FF002802DA404213A507E031688A073A
:1005900001D512A502E0490704D511A5012401E007
:1005A000FFF7DBFF00210A2206F1240709E0B0FB78
:1005B000F2FCB0FBF2F302FB1C003030785418461A
:1005C000491C0028F3D123462A463046BDE8F041B5
:1005D00000F0C5B9000000002D0000002B00000055
:1005E0002000000011680268006A530501D50870F8
:1005F0000AE0D30501D5088006E0130603D5C2172B
:10060000C1E9000200E008600120704701694A1C4E
:1006100002610878704700B58FB0CDE90131002143
:10062000059105497944CDE9031011466846FFF765
:100630006BFE0FB000BD0000E5FFFFFF0A6802F887
:10064000010B0A60704710B5436913B1AFF3008026
:1006500001E0FFF72FFE012010BD127800F1240108
:100660000A7000224A700122EDE711684FF0FF3254
:10067000E9E70000074B70B50D467B44FFF7CBFF61
:100680000446284600F068FD10B14FF0FF3070BD01
:10069000204670BD932A00002DE9FF5F15468A466B
:1006A0000446DFF8AC80F8440027D8E900103E4645
:1006B000CDE9001010E03AF816106A4602A800F0E2
:1006C0004FFD411C07D02178890603D5E26939180E
:1006D00091420DD80744761C2078800602D5E06947
:1006E000B84205DDAE42E6DB3AF816000028E2D15A
:1006F000A069C01BA0612046FFF7FFFED8E90010EB
:10070000CDE90010002017E03AF818106A4602A858
:1007100000F026FDB0F1FF3F81460BD000250DF122
:10072000080B05E0D4E901211BF8050090476D1C7A
:100730004D45F7D308F10100B0428046E4DB206A62
:10074000384420622046FFF7EEFEBDE8FF9F000020
:10075000823500002DE9F0418046D21D22F00702CB
:100760000025D2E90002F52915A614D0011E72F168
:10077000000106DA0023D0EB030063EB020211A6AE
:1007800008E0D8F800108B0701D50FA602E0490752
:1007900001D50EA601251146002408F1240704E026
:1007A00000F098F830323A55641C50EA0102F7D153
:1007B0002B46324621464046BDE8F04100F0CFB816
:1007C000000000002D0000002B00000020000000B1
:1007D00030B4002100F1240408E002F00705D2083B
:1007E000303542EA4372DB086554491C52EA03057E
:1007F000F3D10468002310A2250707D5A40600D46E
:1008000021B1C46901230DA2641EC46130BC00F093
:10081000A6B810B5044621461068FFF79EFE0246B2
:100820002046BDE810400023D2E7D21D22F0070188
:10083000D1E90023CCE700000000000030000000F8
:10084000F0B40D460188090502D5214C7C4402E034
:100850001F4C7C440E34002100F1240608E002F015
:100860000F071209E75D42EA03721B097754491C1E
:1008700052EA0307F3D102780023120704D5702D42
:1008800006D009B1022311342246F0BC00F067B84B
:1008900001231034F8E770B504460D462146106870
:1008A000FFF75BFE024629462046BDE87040002364
:1008B000C6E7D21D22F00703D3E90023C0E703688F
:1008C000126843F0200303600823C3610023B7E7E5
:1008D000E433000030B5B0F10A024FEA900E71F136
:1008E00000034EEA817EB0EB0E0061EB91014FEA0E
:1008F000101E4EEA017E10EB0E0041EB11114FEA83
:10090000102E4EEA016E10EB0E0041EB11214FEA62
:10091000104E4EEA014E10EB0E0041EB1141401813
:1009200041F100014FEAD00040EA41704FEAD101A5
:1009300010EB80054FEA810444EA907444EB010413
:100940006D1944EB0404521BA3414FF0000348BF50
:100950000A3200D530BD401C41F1000130BD2DE907
:10096000F0470D4699469246044600F12408016876
:10097000880604D5E06921F01001216000E0012023
:10098000A84201DD471B00E00027A1697A1902EBAC
:100990000900081AA0612078C00602D42046FFF79B
:1009A000ACFD002608E0D4E901211AF806009047C2
:1009B000206A401C761C20624E45F4DB2078C0067D
:1009C0000AD52046FFF799FD06E0D4E90121302041
:1009D0009047206A401C2062381EA7F10107F4DC12
:1009E00007E0D4E9012118F805009047206A401C6F
:1009F0002062281EA5F10105F3DC2046FFF793FDD8
:100A00002078000602D50220BDE8F0870120FBE730
:100A100070472DE9FF4F0C461E464FF0FF378BB055
:100A2000D2E90001DDF860800A908A46C1F30A55D8
:100A300005B93D46002108464FF00000BAF1000F0D
:100A400000F4400005DA00EB80004FF4400101EAB9
:100A500050004FEA9059B9F1010F00DDB9460A98EC
:100A600050EA4A000ED044F61050A5F2FF35454337
:100A70002F14B8F1000F1ED07542291E1EDDC9F1DA
:100A800000021CE0B8F1010F4FF0000001D030214E
:100A900003E0F24305E02154401CB042FBDB30464A
:100AA0000022002121540B99C1F80880C1E90020DF
:100AB0000FB0BDE8F08FBD1B6D1CDEE74A4600DAC3
:100AC000694206A800F0DEFB06AB93E8070003AB23
:100AD00083E8070050460A9900F094FC8DE807006F
:100AE000A0F500501F3800900398002D0ADD42F257
:100AF0001F014A460844002303A90390684600F0FA
:100B0000FDFE09E0A0F500504A461F38002303A966
:100B10000390684600F007FF8DE807000004000C12
:100B200003D04FF0FF30410800E01046B8F1000F4D
:100B300003D00022009215461EE0751E05D4FFF773
:100B4000C9FE303262556D1EF9D5B3460122084305
:100B500002D000227F1C04E02078302801D100223E
:100B60007F1E002A099784D01DE0112D07DAFFF7B8
:100B7000B1FE303262556D1C50EA0102F5D10843D6
:100B800002D00098C8B10EE00021681E05E0235C89
:100B9000625C63542254401E491C8142F7DBAB4621
:100BA000A81B401E0990002004F80B000B98099A1E
:100BB000C0F80880C0E9002B7AE711264FF0000842
:100BC00057E72DE9F04F88460446D21D22F0070171
:100BD00091B0D1E90001CDE90A0102F01CF9024609
:100BE0000B98C00F01D02D2007E02068810701D5A8
:100BF0002B2002E0202101EAC000032A099001D045
:100C0000072A05DB03464146204600F0FBFA0BE1CC
:100C10002078800601D5E06900E00620B8F1650F74
:100C2000814606D0B8F1660F18D0B8F1670F70D1C1
:100C300031E00020B9F1110F009001DB112301E038
:100C400009F101030AAA01A90CA8FFF7E2FEDDE9F8
:100C50000C70002609F10105834647E001204B4650
:100C600000904FF000470AAA01A90CA8FFF7D1FE97
:100C7000DDE90DB00C995D46002610B909F10100BF
:100C80000D18B9EB050003D4C0F1FF3609F10105D9
:100C9000A5EB09002BE0B9F1010F01DA4FF00109D2
:100CA0000020B9F1110F0090484601DD112300E04A
:100CB00003460AAA01A90CA8FFF7ABFEDDE90C70F8
:100CC0004D4600268346207800070AD4AB4500DA5B
:100CD0005D4601A8012D04DD411911F8011C3029E0
:100CE00007D04F4502DA17F1040F04DA01208246DB
:100CF0000FE06D1EEEE7002F02DCED1B3E4403E02B
:100D0000781CA84200DD7D1CB81B00F1010A4FF0E1
:100D100000472078000703D4AA4501DB4FF0FF3AD3
:100D20000021B7F1004F0DF143088DF8431024D096
:100D300002202B23002F01DA7F422D230A21021EDD
:100D4000A0F1010000DC5FB197FBF1FC97FBF1F231
:100D500001FB1C7C17460CF1300C08F801CDEEE7C6
:100D6000A8F1010003702188090501D5452100E0A3
:100D70006521A0F1010800F8011C09980FA9A1EB59
:100D80000807FF1D00B10120411901EBEA70A169BC
:100D90003844081A401EA0612078C00602D42046BC
:100DA000FFF7ABFB099828B1D4E901219047206AED
:100DB000401C20622078C00622D52046FFF79DFB0C
:100DC0001EE0002E04DBB34502DD01A8805D00E0DB
:100DD0003020D4E901219047206A401C2062761C13
:100DE000AAF101005FEA000A0AD100F007FAC06820
:100DF0000168405CD4E901219047206A401C2062D0
:100E0000281EA5F10105DCDC07E0D4E9012118F872
:100E1000010B9047206A401C2062381EA7F1010791
:100E2000F3DC2046FFF77FFB032011B041E6000012
:100E30002DE9F04F04460D46D21D22F0070089B07F
:100E4000D0E900974846394601F0E5FF0246F80F21
:100E500001D02D2307E02068810701D52B2302E074
:100E6000202101EAC0038DF820300BB1012000E001
:100E70000020032A824601D0072A04DB29462046A7
:100E800000F0C0F93FE12078800601D40D2500E094
:100E9000E569C7F30A560D2D49DA00214FEA175BC1
:100EA00008464FF00000002F00F4400007DA00EB86
:100EB00080004FF4400100EBD07001EA6000811522
:100EC000012901DD4FF0FF3100224FEA850CBCF112
:100ED000180F06D31346ACF118004FF08052C240F1
:100EE00003E04FF4801323FA0CF30CF10C0CBCF16B
:100EF000200F04D3ACF1200C09FA0CF001E007FA42
:100F00000CF000294FF0004801DD18B90FE00ED1B8
:100F100040450CD319EB02095F4121B9404502D18C
:100F20009F4329EA0209BBEB175F00D0761C20889B
:100F3000000502D57B48784402E07A4878441938A5
:100F400008AA302302F80A30037C0AF10101002EBE
:100F50000AF1020A53546A4602DC4FF0300101E004
:100F60004FF031014FF001088DF8001002D0A6F2C9
:100F7000FF3603E059EA470100D06B4E002D02DC3A
:100F80002178090704D54FF002082E218DF80110B1
:100F9000C44600210BE0C7F303433F01C35C491C77
:100FA0006D1E02F80830052908F1010801DA002D4C
:100FB000F1DC00210CE000EB1973491C1B786D1E5D
:100FC000082902F808304FEA091908F1010801DA86
:100FD000002DF0DC21688B0602D516E0A8F101088F
:100FE000E04505DD02EB080313F8013C302BF5D09A
:100FF000B8F1000F09DD02EB080313F8013C2E2BBA
:1010000003D1090701D4A8F10108002D05DD3E2117
:1010100002F808106D1E08F10108407C002E02F84D
:10102000080008F1010804DA2D20764202F80800D1
:1010300002E02B2002F808000A214FF47A70864261
:1010400008F101080BDB96FBF0F3303302F80830AF
:1010500096FBF0F308F1010800FB136601E0642E33
:101060000CDB642096FBF0F3303302F8083096FB7B
:10107000F0F308F1010800FB136601E00A2E06DB1D
:1010800096FBF1F0303002F8080008F1010896FBF9
:10109000F1F001FB1060303002F80800A16908F19E
:1010A000010808EB050202EB0A00081AA06120788B
:1010B000C00602D42046FFF720FA216A08AE01EBF1
:1010C0000A00206204E0D4E9012116F8010B9047E0
:1010D000BAF1010AF7D22078C00602D52046FFF700
:1010E0000CFA6E4609E016F8010B3E280FD0D4E941
:1010F00001219047206A401C2062B8F10108F2D219
:101100002046FFF710FA09B00320BDE8F08F206AEF
:101110002844206203E0D4E90121302090476D1E6D
:10112000EBD3F8E7352D000002FCFFFF10B5436953
:1011300013B1AFF3008001E0FFF7AEFA012010BD5C
:10114000128800F1240182840022C2840122EDE78A
:1011500011684FF0FF32E9E7007B00F08000704734
:1011600070B516460C46054600F040F8036893F843
:101170000101012806D0FF2C0FD8185D68B10120AD
:101180002C7070BDD3F807013246214603F20713D5
:1011900003442846BDE8704018474FF0FF3070BD4B
:1011A000754600F0EBF8AE4605006946534620F060
:1011B0000700854618B020B5FFF74AF8BDE8204083
:1011C0004FF000064FF000074FF000084FF0000B03
:1011D00021F00701AC46ACE8C009ACE8C009ACE8B6
:1011E000C009ACE8C0098D467047000010B500F09A
:1011F00005F8001D10BD00BFFD230000004870472A
:10120000D80500202DE9F0411F4604460326016859
:10121000072A01F4006004DB08B116A505E016A555
:1012200003E008B115A500E015A521F0100020602D
:10123000A069C01EA0610FB1401EA0612046FFF74B
:101240005CF94FB1D4E9012138469047206A401C2F
:101250002062C01C206206E0206AFAE7D4E901217E
:1012600015F8010B9047761EF8D22046FFF75BF980
:10127000BDE8F0814E414E006E616E00494E460061
:10128000696E66002DE9F047814616468AB03548FA
:1012900078440DC88DE80D0032487844801C03ACBA
:1012A0000DC884E80D0041F69B300844372190FBBF
:1012B000F1F290FBF1F5A5F1800501FB12041B3C56
:1012C00002D56442012000E00020DFF898A08046AB
:1012D0000027FA44AAF1BE0A0EE0E0070AD032461F
:1012E000684607EB470101230AEB810100F01BFB75
:1012F0008DE8070064107F1C002CEED1194F7F444D
:10130000AE3F19E0E80715D007EB04100DF1180AFD
:1013100090E80E008AE80E00C068F04201D19819EA
:1013200008903246012306A903A800F0FCFA03AB9B
:1013300083E807006D10641C002DE3D14FF001031A
:1013400032466946B8F1000F03A802D000F0D6FA81
:1013500001E000F0E8FAC9E90001C9F808200AB084
:10136000BDE8F0876C2A000010B50446AFF300809A
:101370002046BDE81040FEF756BF00000048704709
:10138000B80500204FF0013C50F8042B51F8043B05
:101390009A4221D1A2EB0C03934313EACC1317D149
:1013A00050F8042B51F8043B9A4215D1A2EB0C03E0
:1013B000934313EACC130BD150F8042B51F8043BA0
:1013C0009A4209D1A2EB0C03934313EACC13DBD06E
:1013D0004FF00000704700BFD01A01BAB1FA81F196
:1013E00001F0180122FA01F0CB40C1F12001DBB27B
:1013F000C0B2C01A2CFA01F3D11A914311EAC311F9
:10140000E6D170475FEA400C08BF91F0000F4FEA49
:101410008C234FEAC12243EA51514FEA1C5018BFB6
:1014200000F5F0404FEA300018BF41F000415FEA9C
:101430006C5C00F02980BCF1FF3F08BF40F08040A9
:101440007047130C06BF12044FF0100C4FF0000C45
:10145000130E04BF12020CF1080C130F04BF12018B
:101460000CF1040C930F04BF92000CF1020CD30F8B
:1014700004BF52000CF1010C11464FF00002A0F124
:101480001F00A0EB0C00704711F0004F08BF704721
:1014900031F000413FF4D5AF0B0C06BF09044FF00B
:1014A000100C4FF0000C0B0E04BF09020CF1080CDD
:1014B0000B0F04BF09010CF1040C8B0F04BF890052
:1014C0000CF1020CCB0F04BF49000CF1010CCCF164
:1014D0002003A0EB0C0022FA03F302FA0CF241EA1B
:1014E000030100F10100704720F07F4C80EA030007
:1014F00023F07F47ACEB070303F57C5300F000407B
:1015000003F1FF032DE980494FEA154B09B44FEA77
:10151000144325EA0B4E24EA03480FF2042606EB97
:10152000132749083E785FEA320203FB0667C7F5D6
:10153000000707FB06F64FEA54374FEAD64606F196
:10154000020607FB066CCCF1005C4FEA1C472CEA54
:10155000074C07FB06F40CFB06F504EB15464FEAB7
:10156000961634BF00204FF000404FEAD13706FBFB
:1015700007FC4FEA1C4C0CFB0BF7D21B03FB0CF7D0
:1015800061EB07010CFB0EF7B0EB074072EB174263
:101590000CFB08F734BFA2EB0742B2EB074261EB4A
:1015A00017414FEA0C444FEA910706FB07FC4FEA4C
:1015B0001C4C0CFB0BF7B0EBC74072EB573203FB34
:1015C0000CF734BFA2EBC742B2EBC74261EB573115
:1015D0000CFB0EF7B0EBC70072EB57720CFB08F771
:1015E00034BFA2EBC702B2EBC70261EB5771039F96
:1015F0004FEA816141EA921104EBCC044FEAD13702
:101600004FEA826206FB07FC42EA90124FEA8060D2
:101610004FEA1C4C0CFB0BF7D21B03FB0CF761EBE6
:1016200007010CFB0EF7B0EB074072EB17420CFB07
:1016300008F734BFA2EB0742B2EB074261EB174158
:101640004FEA8C554FEA910704EB9C2406FB07FCFC
:101650004FEA1C4C0CFB0BF7B0EBC74072EB573258
:1016600003FB0CF734BFA2EBC742B2EBC74261EBFE
:1016700057310CFB0EF7B0EBC70072EB57720CFB47
:1016800008F734BFA2EBC702B2EBC70261EB577198
:1016900015EB4C254FEA816141EA92114FEA8262D3
:1016A0004FEAD13742EA901206FB07FC44F10004EE
:1016B0004FEA80604FEA1C4C0CFB0BF7D21B03FB7C
:1016C0000CF761EB07010CFB0EF7B0EB074072EB78
:1016D00017420CFB08F734BFA2EB0742B2EB0742FC
:1016E00061EB174115EB1C154FEA813141EA92413C
:1016F0004FEA823242EA90424FEA80304FEA0C765B
:1017000044F1000448EA03434EEA0B484FF0000E50
:10171000B2EB080C71EB030724BF624639464EEB6F
:101720000E0E4FF0000B0018524149414BEB0B0BD2
:10173000B2EB080C71EB03077BF1000B24BF624690
:1017400039464EEB0E0E4FF0000B00185241494146
:101750004BEB0B0BB2EB080C71EB03077BF1000BAF
:1017600024BF624639464EEB0E0E51EA020718BFFF
:1017700046F0010616EB0E7655F1000254F1000119
:1017800003D5BDE88901BDE80088BDE88901BDE851
:101790000048B619524141EB0101A3F10103704722
:1017A00080807F7E7D7C7B7A79787776767574739E
:1017B000727171706F6E6E6D6C6C6B6A6A6968685D
:1017C000676666656464636362616160605F5F5EF3
:1017D0005E5D5D5C5C5B5B5A5A5959585857575669
:1017E00056555555545453535252525151505050CE
:1017F0004F4F4F4E4E4D4D4D4C4C4C4B4B4B4A4A20
:101800004A49494948484847474747464646454563
:10181000454444444443434343424242424141419C
:10182000002B9C4630D477002BD01CB54FEA3707ED
:1018300003B44FF010004FF01001BAF1000F06D0C2
:10184000BCF1000FDCBF40F0080040F008014FF091
:1018500000000FBCBDE810400BF1010BBBF1010F04
:1018600008BF5FEA170722BF12F1010211F101015F
:101870004FF0004143F1000300F0004043EA000054
:101880007047F9D35708D0E746EA064613F1400FF0
:101890004FEA16461FDD13F1200FDFBF16430A463D
:1018A000002120335B42BED0C3F1200746EA064642
:1018B00002FA07F74FEA164646EA0706C3F1200781
:1018C00022FA03F201FA07F721FA03F14FF00003BD
:1018D00042EA0702A7E746EA020646EA06464FEA58
:1018E000164646EA0106BCBF46EA0646360C4FF0ED
:1018F00000034FF000024FF0000194E72DE9804C07
:101900009A46934670B491E8380007C831EA400C13
:1019100048BF34EA430C03D5FFF7E6FDFFF780FF2D
:10192000F0BCBDE8008C2DE9804C9A46934670B41B
:1019300091E8380007C810F0804F08BF13F0804FBF
:1019400003D100F005F8FFF76BFFF0BCBDE8008C99
:1019500020F07F4780EA030023F07F4C07EB0C0365
:10196000A3F57C5300F00040A3F1FE0392F0000FBA
:1019700000F0B38095F0000F00F077802DE9014969
:101980004FEA11404FEA144621EA004800FB06FCEA
:1019900024EA064708FB06F607FB08F800FB07F7F2
:1019A00018EB06484CEB164C4FEA124B18EB074865
:1019B0004FEA15464CEB174022EA0B4E0BFB06FC98
:1019C00025EA06470EFB06F607FB0EFE0BFB07F7A4
:1019D0001EEB064E4CEB164C4FF000061EEB074E6E
:1019E0004CEB174B18EB0B0840F1000018EB0E0BFB
:1019F00058EB000840F100008F1A4FF000013CBF87
:101A0000C943661B14BFB5EB040C00213CBFC9439E
:101A1000F61B4FEA17444EEA8E0E27EA04454FEABA
:101A20001C4704FB07622CEA074C05FB07F70CFB7D
:101A300005F604FB0CFC16EB074642EB174216EBCF
:101A40000C4642EB1C421BEB060658EB02024141DE
:101A500046EA9E0601D5BDE80189B619524141EB1F
:101A60000101A3F10103BDE801894FEA14454FEAE2
:101A7000114724EA054621EA074C05FB07F406FB5B
:101A800007F70CFB06F105FB0CFC11EB074144EBDF
:101A900017444FEA124711EB0C4144EB1C4422EA75
:101AA000074C05FB07F206FB07F70CFB06F605FBE8
:101AB0000CFC16EB074642EB174216EB0C4642EBCA
:101AC0001C456A1854F1000148BF7047B6195241CD
:101AD00041EB0101A3F10103704795F0000F37D0EE
:101AE0004FEA11424FEA144721EA024624EA074C22
:101AF00002FB07F106FB07F70CFB06F402FB0CFCEC
:101B000014EB074441EB17414FEA154714EB0C4423
:101B100041EB1C4125EA074C02FB07F506FB07F7E2
:101B20000CFB06F602FB0CFC16EB074645EB1745D3
:101B300016EB0C4645EB1C42121951F1000148BF4F
:101B40007047B619524141EB0101A3F101037047FF
:101B50004FEA14454FEA114724EA054621EA074CAB
:101B600005FB07F106FB07F70CFB06F24FF000063A
:101B700005FB0CFC12EB074241EB174112EB0C4248
:101B800051EB1C4148BF7047921841EB0101A3F192
:101B90000103704700BFFEE77047000010B5044620
:101BA00060B200F04DF960B200F06AF960B200F086
:101BB00087F960B200F0A8F900F004FA05A201214B
:101BC000084600F074FB032322460821012000F0A0
:101BD0003BFB10BD5370656564623A002DE9F0412E
:101BE000024600250026002000230024002791F84B
:101BF00003C00CF00F0591F803C00CF0100CBCF101
:101C0000000F03D091F802C04CEA050591F800C01E
:101C1000BCF1000F31D0146800202BE04FF0010C14
:101C20000CFA00F3B1F800C00CEA03069E4220D182
:101C300083004FF00F0C0CFA03F7BC4305FA03FCCA
:101C40004CEA040491F803C0BCF1280F06D14FF010
:101C5000010C0CFA00FCC2F814C00AE091F803C0B1
:101C6000BCF1480F05D14FF0010C0CFA00FCC2F892
:101C700010C0401C0828D1D31460B1F800C0BCF1DA
:101C8000FF0F34DD546800202EE000F1080C4FF007
:101C9000010808FA0CF3B1F800C00CEA03069E42F2
:101CA00021D183004FF00F0C0CFA03F7BC4305FA67
:101CB00003FC4CEA040491F803C0BCF1280F05D1E1
:101CC00000F1080C08FA0CF8C2F8148091F803C06F
:101CD000BCF1480F07D100F1080C4FF0010808FAD9
:101CE0000CF8C2F81080401C0828CED35460BDE820
:101CF000F0810246002093680B400BB1012000E008
:101D00000020704741617047016170470AB101616D
:101D100000E041617047000010B5044660B200F079
:101D20008FF860B200F0ACF860B200F0C9F860B2B1
:101D300000F0EAF800F046F905A20121084600F09B
:101D4000B6FA032322460821012000F07DFA10BDD7
:101D50005370656564613A0000BFFEE710B500246A
:101D600002211448FFF7C5FF68B9142001F092F86A
:101D700000BF02210F48FFF7BCFF0028F9D0142054
:101D800001F088F801244FF400610A48FFF7B1FF21
:101D900070B9142001F07EF800BF4FF400610548CF
:101DA000FFF7A7FF0028F8D0142001F073F80224F1
:101DB000204610BD000C014008B50121082000F0AC
:101DC00067FB48208DF8030040F60200ADF80000E4
:101DD00003208DF8020069460148FFF7FFFE08BDA9
:101DE000000C014000BFFEE710B500F001F810BD87
:101DF0001CB501210C2000F04BFB10208DF80700D2
:101E0000F020ADF8040003208DF8060001A90A486F
:101E1000FFF7E4FE10208DF803004FF47040ADF89A
:101E2000000003208DF8020069460448FFF7D6FE43
:101E300000F072FA1CBD000000080140000C0140D7
:101E400010B50446002C0BDB10210C48FFF75CFF9B
:101E500020210A48FFF756FFA0B200F0D3FA0BE0AA
:101E600010210648FFF74EFF20210448FFF74CFFE2
:101E7000614288B200F0C6FA10BD000000080140BF
:101E800010B50446002C0BDB40210C48FFF73CFF4B
:101E900080210A48FFF736FFA0B200F0BBFA0BE042
:101EA00040210648FFF72EFF80210448FFF72CFF52
:101EB000614288B200F0AEFA10BD00000008014097
:101EC00010B50446002C0DDB4FF480510D48FFF790
:101ED0001BFF4FF400510B48FFF714FFA0B200F0B6
:101EE000A1FA0DE04FF480510648FFF70BFF4FF4C5
:101EF00000510448FFF708FF614288B200F092FAEF
:101F000010BD0000000C014010B50446002C0DDB94
:101F10004FF480410D48FFF7F7FE4FF400410B48A6
:101F2000FFF7F0FEA0B200F087FA0DE04FF4804119
:101F30000648FFF7E7FE4FF400410448FFF7E4FED0
:101F4000614288B200F078FA10BD0000000C014038
:101F50007047000070B5002100230F22C47804B33D
:101F6000154C246804F4E064C4F5E064210AC1F16E
:101F70000403CA40447804FA03F1847814402143EE
:101F800009010E4C0678A155047804F01F050124C0
:101F9000AC4005786D11AD0005F1E025C5F80041B4
:101FA00009E0047804F01F050124AC40044D0678D4
:101FB000761145F8264070BD0CED00E000E400E02D
:101FC00080E100E070B500240EE00021204600F022
:101FD000F0F8002504E0002000F08DF9681CC5B27F
:101FE000802DF8DB601CC4B2082CEEDB70BD000055
:101FF00008B50121082000F04BFA14208DF80300E9
:1020000003208DF802004FF48070ADF8000069469F
:102010000A48FFF7E3FD4FF40070ADF80000694691
:102020000648FFF7DBFD012211020448FFF76EFEB0
:10203000012251020148FFF769FE08BD000C014072
:1020400070B50546002415E08020204100EA050215
:102050004FF400710E48FFF759FE012211020C489F
:10206000FFF754FE00224FF480710948FFF74EFE3F
:10207000601CC4B2082CE7DB012211020448FFF700
:1020800045FE00224FF480710148FFF73FFE70BD0E
:10209000000C014010B5012251020A48FFF736FE3C
:1020A000012211020748FFF731FE00224FF40071B0
:1020B0000448FFF72BFE00224FF480710148FFF720
:1020C00025FE10BD000C014010B500224FF4007138
:1020D0000648FFF71BFE012211020448FFF716FE17
:1020E000012251020148FFF711FE10BD000C014012
:1020F00070B5002406E0002500E06D1CB5F57A7F80
:10210000FBD3641CB4F57A7FF5D3FFF771FFAE20E3
:1021100000F0E1F8D52000F0DEF8802000F0DBF8D8
:10212000A82000F0D8F83F2000F0D5F8D32000F028
:10213000D2F8002000F0CFF8402000F0CCF8A12029
:1021400000F0C9F8C82000F0C6F8DA2000F0C3F8A3
:10215000122000F0C0F8812000F0BDF8CF2000F080
:10216000BAF8D92000F0B7F8F12000F0B4F8DB207D
:1021700000F0B1F8302000F0AEF8A42000F0ABF889
:10218000A62000F0A8F88D2000F0A5F8142000F09B
:10219000A2F8AF2000F09FF8FFF714FF70BD10B554
:1021A0000246012000E050430B1EA1F10101FAD1CB
:1021B00010BD70B505460C4645F0B00000F08BF838
:1021C000102141EA141000F086F804F00F0000F02E
:1021D00082F870BD2DE9F04105460E461746721E85
:1021E000D206110E6A1E5206100EFFF7E2FF0024FF
:1021F00009E0A7F12001134A02EB0111085D00F08C
:102200007AF8601CC4B2082CF3DB721ED206110EE1
:102210006A1E012303EB4202D0B2FFF7CAFF00247B
:102220000BE0A7F12001074A02EB011204F10801BB
:10223000505C00F060F8601CC4B2082CF1DBBDE813
:10224000F0810000283600082DE9F04781468846D5
:1022500015461E46002D06DB2B2241464846FFF759
:10226000B9FF2F4605E02D2241464846FFF7B2FF51
:102270006F42002417E0301B411E0A20FFF78FFF3A
:10228000B7FBF0F00A21B0FBF1F201FB120000F104
:10229000300A08EB0400401CC1B252464846FFF722
:1022A00099FF601CC4B2B442E5DBBDE8F0872DE9BC
:1022B000F04107460E461546002407E02A5D301916
:1022C000C1B23846FFF786FF601CC4B2285D002803
:1022D000F4D1BDE8F08110B50446FFF7DBFE7820AD
:1022E000FFF7AEFE0020FFF7ABFE2046FFF7A8FE8B
:1022F000FFF7EAFE10BD10B50446FFF7CBFE7820CD
:10230000FFF79EFE4020FFF79BFE2046FFF798FE5A
:10231000FFF7DAFE10BD000000B589B001210846C4
:1023200000F096F80121022000F092F801210C2023
:1023300000F0AEF818208DF823000C20ADF8200036
:1023400003208DF8220008A92B48FFF747FC18202E
:102350008DF81F000320ADF81C008DF81E0007A9A2
:102360002648FFF73BFC4FF0804000F07CFA244801
:1023700000F079FA0020ADF81600ADF812006320E5
:10238000ADF814002320ADF8100000208DF81800DF
:1023900004A94FF0804000F00DFB04A9184800F09C
:1023A00009FB684600F0F4FA6020ADF80000002058
:1023B000ADF808000120ADF802000020ADF80600DD
:1023C00069464FF0804000F055FA69464FF0804072
:1023D00000F0A0FA69460A4800F04CFA694608483D
:1023E00000F098FA0121880700F017FA012104484B
:1023F00000F013FA09B000BD00080140000C0140D4
:102400000004004010B5044621464FF0804000F023
:10241000C9FA10BD10B5044621464FF0804000F0C7
:10242000C3FA10BD10B504462146024800F0BAFABE
:1024300010BD00000004004010B5044621460248CB
:1024400000F0B2FA10BD0000000400407047000028
:1024500029B1064AD2690243044BDA6104E0034A17
:10246000D2698243014BDA617047000000100240DC
:1024700029B1064A12690243044B1A6104E0034A77
:1024800012698243014B1A6170470000001002403C
:1024900029B1064A92690243044B9A6104E0034A57
:1024A00092698243014B9A6170470000001002401C
:1024B00029B1064AD2680243044BDA6004E0034AB9
:1024C000D2688243014BDA6070470000001002407E
:1024D00030B500210022002400232D4D6D6805F049
:1024E0000C0121B1042905D0082923D105E0294D8B
:1024F000056022E0274D05601FE0254D6D6805F45D
:102500007012234D6D6805F48034022505EB92426C
:102510001CB9214D554305600BE01D4D6D6805F458
:1025200000351DB11C4D5543056002E0194D554362
:10253000056002E0174D056000BF00BF144D6D68D7
:1025400005F0F0010909154D6B5C0568DD4045603B
:102550000F4D6D6805F4E061090A104D6B5C45682C
:10256000DD4085600A4D6D6805F46051C90A0B4D68
:102570006B5C4568DD40C560054D6D6805F4404104
:10258000890B074D6B5CC568B5FBF3F5056130BD84
:102590000010024000127A0000093D0014000020E3
:1025A00024000020704710B500F002F810BD0000B4
:1025B0000CB50020019000903348006840F4803052
:1025C0003149086000BF3048006800F400300090D6
:1025D0000198401C0190009818B90198B0F5A06FBF
:1025E000F1D12948006800F4003010B101200090BA
:1025F00001E0002000900098012843D123480068A2
:1026000040F01000214908600846006820F00300EF
:1026100008600846006840F0020008601A484068F8
:10262000194948600846406848600846406840F4D8
:10263000806048600846406820F47C104860084686
:10264000406840F4E81048600846006840F0807038
:10265000086000BF0C48006800F000700028F9D046
:102660000948406820F00300074948600846406870
:1026700040F00200486000BF0348406800F00C00D2
:102680000828F9D10CBD00000010024000200240D3
:1026900010B50020FFF7D4FB0020FFF7F1FB00206E
:1026A000FFF70EFC0020FFF72FFCFFF78BFC0DA2BD
:1026B00001210846FFF7FBFD0CA201210220FFF7D4
:1026C000F6FD03230B4890F9002008210120FFF7B5
:1026D000BBFD0323084890F9002008210220FFF7E2
:1026E000B3FD10BD5370656564613A005370656554
:1026F00064623A003300002034000020042808D12E
:102700004FF0E021096941F004014FF0E02211612E
:1027100007E04FF0E021096921F004014FF0E022C9
:10272000116170477047000010B51348006840F011
:1027300001001149086008464068104908400E49E8
:102740004860084600680E4908400B490860084682
:10275000006820F4802008600846406820F4FE00ED
:1027600048604FF41F008860FFF71DFF4FF00060C6
:102770000449086010BD0000001002400000FFF88E
:10278000FFFFF6FE08ED00E010B50121880700F01C
:1027900050F870B10748008840F4004005490880AF
:1027A0000121880700F036F800214FF0804000F04A
:1027B00034F810BD3A0000207FB505460C460121D3
:1027C0000846FFF745FEADF80450ADF80040002084
:1027D000ADF80600ADF8020069464FF0804000F009
:1027E000E9F801221146900700F034F8012188072A
:1027F00000F013F81C208DF80C0000208DF80D005F
:1028000002208DF80E0001208DF80F0003A8FFF7BD
:10281000A1FB7FBDCA430282704721B1028842F00A
:102820000102028004E002884FF6FE731A40028023
:10283000704730B50246002000230024158A05EABF
:102840000103958905EA010413B10CB1012000E0F0
:10285000002030BD1AB183890B43838102E0838954
:102860008B438381704701894FF6F87211400181D3
:102870007047000070B5002400220023058C4FF63D
:10288000FF6635400584028C8388848B4FF68F75F4
:102890002C404FF6FC752C400D882C434FF6FF550D
:1028A0002A400D894FF6FF7606EA05252A434D8812
:1028B00006EA05252A43154DA84202D0144DA84228
:1028C0001DD14FF2FF752A404D894FF6FF7606EA7B
:1028D00005252A434FF6FF352A408D8806EA05254F
:1028E0002A434EF6FF752B404DF6FF752B408D8920
:1028F00006EA05152B43CD8906EA05152B4383808F
:102900008483CD888587028470BD0000002C01403F
:102910000034014070B5002200230024058C4EF6DF
:10292000FF7635400584038C8488828B48F6FF75DA
:102930002A404FF6FF452A400D884FF6FF7606EAFB
:1029400005252A434DF6FF752B400D8906EA05350E
:102950002B434D8806EA05352B430B4DA84202D088
:102960000A4DA84208D14BF6FF752C408D894FF6D1
:10297000FF7606EA85152C4384808283CD88A0F8F3
:102980004050038470BD0000002C01400034014021
:102990000021018041808180C1800181418181814C
:1029A000C181704781877047A0F8401070478184CB
:1029B00070470000002202881D4B98420ED01D4B2C
:1029C00098420BD0B0F1804F08D01B4B984205D0F5
:1029D0001A4B984202D01A4B984204D14FF68F738B
:1029E0001A404B881A43174B984207D0164B98420F
:1029F00004D04FF6FF431A40CB881A4302808B88DD
:102A000083850B8803850A4B98420BD0094B98426B
:102A100008D00E4B984205D00D4B984202D00D4B7A
:102A2000984201D10B7A038601238382704700000C
:102A3000002C014000340140000400400008004028
:102A4000000C004000100040001400400040014015
:102A500000440140004801402DE9F04107460C4682
:102A600015461E463846FFF7EBF92046FFF708FAF1
:102A70002846FFF725FA3046FFF746FABDE8F08111
:102A80002DE9F04107460C4615461E463846FFF72D
:102A9000D7F92046FFF7F4F92846FFF711FA304638
:102AA000FFF732FABDE8F08110B540F22551214818
:102AB00000F0EBF800283BD01E4800F0A1F91E49B9
:102AC00008701E48008800F4004088BB1B4800883E
:102AD00000F4804070B1084600780A2803D0002036
:102AE0001649088024E01548008840F40040134946
:102AF00008801DE0104800780D2806D10F48008896
:102B000040F480400D49088012E00B4800780B49E2
:102B10000988C1F30D010A4A505408480088401C36
:102B20000649088008460088C72801DD0020088083
:102B300010BD0000003801403200002030000020AD
:102B40004000002010B540F22551184800F09DF8D3
:102B500018B3164800F054F9154908701548008854
:102B600000F40040C8B913480088B0F5167F15DAA4
:102B700000214FF08040FFF71AFF0E48008818B977
:102B800001218807FFF749FE09490A7809490888A1
:102B9000411C084B198008490A5405E00548008883
:102BA00040F400400349088010BD00000048004088
:102BB0003C0000203A0000200801002021B1828959
:102BC00042F40052828104E082894DF6FF731A407C
:102BD0008281704710B504462048844209D1012102
:102BE0008803FFF765FC00214FF48040FFF760FC8D
:102BF00032E01B48844209D101214804FFF738FC28
:102C000000214FF40030FFF733FC25E015488442E3
:102C100009D101218804FFF72BFC00214FF480200B
:102C2000FFF726FC18E01048844209D10121C804AE
:102C3000FFF71EFC00214FF40020FFF719FC0BE00A
:102C40000A48844208D101210805FFF711FC002140
:102C50004FF48010FFF70CFC10BD0000003801405D
:102C60000044004000480040004C0040005000403C
:102C700002460020B1F5007F00D100BF13880B4051
:102C80000BB1012000E00020704770B5024600241F
:102C900000230025002040F66A16B14200D100BF93
:102CA000C1F3421501F01F03012606FA03F3012DBB
:102CB00002D19689334006E0022D02D1168A3340B4
:102CC00001E0968A33400C12012606FA04F41688B5
:102CD000344013B10CB1012000E0002070BDF0B50C
:102CE0000346002400260025002040F66A17B9425A
:102CF00000D100BF1846C1F3421401F01F0601279E
:102D000007FA06F5012C01D10C3004E0022C01D1A8
:102D1000103000E014301AB107682F43076002E05A
:102D20000768AF430760F0BD2DE9F04786B0054660
:102D30000E460024A24600BFA1460027B08900B17C
:102D400000BF2F462C8A4CF6FF700440F0880443E5
:102D50002C82AC894EF6F3100440B08831890843C8
:102D6000718908430443AC81AC8A4FF6FF400440AC
:102D7000B0890443AC8201A8FFF7AAFB1F48874231
:102D800002D1DDF810A001E0DDF80CA0A88900F464
:102D9000004040B10AEBCA0000EB0A10316849005C
:102DA000B0FBF1F807E00AEBCA0000EB0A1031684B
:102DB0008900B0FBF1F86420B8FBF0F004012009B1
:102DC000642101FB1089A88900F4004040B1322041
:102DD00000EBC900B0FBF1F000F00700044308E08D
:102DE000322000EB09106421B0FBF1F000F00F007D
:102DF00004432C8106B0BDE8F08700000038014094
:102E000001468888C0F308007047C1F30802828039
:102E1000704700BFFEE7490050EAC12018BF0420F8
:102E20004A0D18BF40F0010040F2FF72B2EB515F53
:102E300008BF40F00200012808BF05207047303865
:102E40000A2801D2012070470020704700BF704758
:102E500010B56FF00400FFF751FC0A4800680A49FA
:102E6000B0FBF1F0094908700846007800EB40011A
:102E7000C1EBC0104FF6FF7101EAC00004490880A1
:102E800010BD00000000002000127A002800002081
:102E90002A0000200146114A12884A434FF0E023DD
:102EA0005A6100229A611A46126942F001021A61BF
:102EB00000BF4FF0E022106900F001021AB100F4E7
:102EC0008032002AF5D04FF0E022126922F0010290
:102ED0004FF0E0231A6100229A6170472A00002017
:102EE00070B5044600250948008800F4004058B138
:102EF000002006490988C1F30E01054A50542146B5
:102F00001046FDF7C5FA0546284670BD3A00002078
:102F1000080100202DE9F04106460D461446002721
:102F2000002013490880314612A000F063FAE5B191
:102F3000DCB113E00A20FFF7ADFF0D48008800F474
:102F4000004058B12846FFF7CBFF20B129460BA01F
:102F5000FDF7A4F906E0002005490880601E80B254
:102F6000041EE7D100BF04B901273846BDE8F0814F
:102F70003A00002025730D0A0000000061636B3ADF
:102F800025730D0A000000007CB505460C466E4610
:102F9000002013490880294612A000F02BFAECB15A
:102FA00017E00A20FFF776FF0D48008800F4004084
:102FB00078B100200A490988C1F30E010A4A505429
:102FC0001646314609A0FDF769F90020044908803A
:102FD00003E0601E80B2041EE3D100BF30467CBD1A
:102FE0003A000020257300000801002061636B3A5D
:102FF00025730D0A0000000010B532221CA11DA08F
:10300000FFF788FF14221EA11FA0FFF783FF4FF4D4
:103010007A70FFF73FFF4FF47A70FFF73BFF4FF4F2
:103020007A70FFF737FF4FF47A70FFF733FF00BF76
:103030004FF4167216A119A0FFF76CFF0028F7D104
:1030400014220BA11CA0FFF765FF00BFC8221DA121
:103050001EA0FFF75FFF0028F8D1C82204A125A019
:10306000FFF758FF322202A126A0FFF753FF10BD41
:103070004F4B000041542B43574D4F44453D3100C9
:10308000726561647900000041542B525354000072
:103090005749464920474F542049500041542B433B
:1030A000574A41503D2231323334222C22313233BF
:1030B000343536373822000041542B4349504D55A2
:1030C000583D3000434F4E4E4543540041542B432E
:1030D000495053544152543D22544350222C2231E2
:1030E00039322E3136382E35382E313531222C34C6
:1030F0003534350041542B4349504D4F44453D3103
:103100000000000041542B43495053454E440000F9
:1031100000BF054A128802F04002002AF9D0C2B26C
:10312000014B1B1D1A80704700380140FEF7E0FF7D
:10313000FEF75AFEFFF78CFEFEF73EFE4FF4E1303D
:1031400000F080F94FF4E13000F0D6F9FFF754FFBA
:10315000322187A0FFF718FF322188A0FFF714FF64
:1031600004E188480078012814D187480078143099
:1031700040B2854908700020844908708249087867
:10318000FEF7CAFD804890F90000642802DD642043
:103190007D4908707B480078022814D17A4800786D
:1031A000143840B278490870002078490870764990
:1031B0000878FEF7B1FD744890F90000002802DAA3
:1031C0000020714908706F480078032814D16F48B7
:1031D0000078143040B26D49087000206A490870C8
:1031E0006A490878FEF7DAFC684890F9000064281C
:1031F00002DD64206549087062480078042814D113
:1032000062480078143840B26049087000205E4976
:1032100008705E490878FEF7C1FC5C4890F9000030
:10322000002802DA0020594908705648007805281D
:1032300019D11420564908701E20564908701920CB
:1032400055490870232055490870084690F9003008
:10325000514890F900204F4890F900104C4890F9DF
:103260000000FFF70DFC47480078062819D11E2002
:1032700047490870142047490870232046490870C0
:10328000192046490870084690F90030424890F9E4
:103290000020404890F900103D4890F90000FFF7E9
:1032A000DBFB38480078072806D1FFF7F1F900204A
:1032B000354908703549087032480078052803D030
:1032C00030480078062833D135A201210846FEF7A0
:1032D000EEFF35A201210220FEF7E9FF34A2012111
:1032E0000320FEF7E4FF34A201210420FEF7DFFFF4
:1032F0000323274890F9002008210120FEF7A4FFAE
:103300000323244890F9002008210220FEF79CFFA7
:103310000323214890F9002008211846FEF794FF66
:1033200003231E4890F9002008210420FEF78CFF9B
:10333000FEF714FD0446012C03D1322120A0FFF733
:1033400023FE022C03D1322121A0FFF71DFE032C06
:1033500006D1322122A0FFF717FE25A0FCF79EFF21
:103360000020084908703220FFF794FDF9E60000BC
:10337000C1ACBDD3B3C9B9A60D0A0000BCD3D3CD2F
:103380000D0A00003200002033000020340000202D
:1033900035000020360000203700002038000020D3
:1033A0005370656564313A005370656564323A0064
:1033B0005370656564333A005370656564343A0050
:1033C000B0B4BCFCD2BBD3D0D0A70D0A0000000023
:1033D000B0B4BCFCB6FED3D0D0A70D0A00000000EC
:1033E000B0B4BCFCC8FDD3D0D0A70D0A00000000CB
:1033F000363636000FB438B505A800900F48009A4D
:103400000499FCF739FF002000900C48FDF752F8B2
:1034100085B200240DE000BF40210948FFF728FCD9
:103420000028F9D00548015D0548FFF7EEFC601C57
:1034300084B2AC42EFDB38BC5DF814FB60030020C3
:103440000048004010B586B00446012144F2040053
:10345000FFF71EF84FF40070ADF8140003208DF84C
:10346000160018208DF8170005A92148FEF7B6FBB5
:103470000120ADF8140010208DF8170005A91C4894
:10348000FEF7ACFB4FF48060ADF8140004208DF81B
:10349000170005A91648FEF7A1FB25208DF80000AE
:1034A00003208DF801008DF8020001208DF8030043
:1034B0006846FEF74FFD01940020ADF80800ADF816
:1034C0000A00ADF80C00ADF810000C20ADF80E00AD
:1034D00001A90848FFF728FC012240F225510548C0
:1034E000FFF7FDFB01210348FFF768FB06B010BDA5
:1034F000000801400038014010B586B004460121A3
:103500000820FEF7C5FF01218804FEF7A1FF2A4825
:10351000FFF760FB4FF48060ADF8100003208DF8DA
:10352000120018208DF8130004A92448FEF756FB5A
:103530004FF40060ADF8100004208DF8130004A9CA
:103540001E48FEF74BFB00940020ADF80400ADF8D8
:103550000600ADF80800ADF80C000C20ADF80A002C
:1035600069461548FFF7E0FB01211348FFF726FBEA
:10357000012240F225511048FFF7B1FB27208DF8BA
:10358000140002208DF8150003208DF8160001208C
:103590008DF8170005A8FEF7DDFC41F61F4140F24B
:1035A000E730FFF709F900200549088000210548A8
:1035B000FFF733F906B010BD00480040000C014091
:1035C0003A0000200014004010B500290AD0087805
:1035D000002807D005487844FDF7D4FE002801D024
:1035E000002010BD0248784410BD000062070000B2
:1035F0005A07000010B500290AD00878002807D023
:1036000005487844FDF7BEFE002801D0002010BD1B
:103610000248784410BD0000520700004A0700002D
:10362000FDF7CFBAFDF704BC000000000000000069
:103630000000000000000000000000F80000000092
:10364000000000333000000000100C06100C0600D3
:10365000000000000000000040C07840C07840003A
:10366000043F04043F040400007088FC083000009C
:10367000001820FF211E0000F008F000E0180000F4
:1036800000211C031E211E0000F0088870000000AD
:103690001E2123241927211010160E0000000000FF
:1036A0000000000000000000000000E0180402001C
:1036B000000000071820400000020418E00000008D
:1036C0000040201807000000404080F0804040008B
:1036D0000202010F01020200000000F000000000E1
:1036E0000101011F010101000000000000000000B5
:1036F00080B070000000000000000000000000002A
:1037000000010101010101010000000000000000B2
:10371000003030000000000000000000806018044D
:10372000006018060100000000E010080810E0002A
:10373000000F102020100F00001010F800000000F3
:103740000020203F2020000000700808088870003A
:1037500000302824222130000030088888483000BA
:103760000018202020110E000000C02010F80000DA
:1037700000070424243F240000F808888808080073
:103780000019212020110E0000E010888818000088
:10379000000F112020110E0000380808C83808005A
:1037A0000000003F000000000070880808887000DA
:1037B000001C222121221C0000E010080810E0005B
:1037C0000000312222110F00000000C0C0000000E4
:1037D0000000003030000000000000800000000009
:1037E0000000806000000000000080402010080001
:1037F00000010204081020004040404040404000CA
:1038000004040404040404000008102040800000A4
:103810000020100804020100007048080808F000A9
:103820000000003036010000C030C828E810E00079
:103830000718272423140B000000C038E000000004
:10384000203C23020227382008F88888887000006E
:10385000203F202020110E00C03008080808380042
:10386000071820202010080008F808080810E000B9
:10387000203F202020100F0008F88888E80810005A
:10388000203F20202320180008F88888E80810002E
:10389000203F200003000000C03008080838000066
:1038A00007182020221E020008F808000008F80867
:1038B000203F210101213F20000808F808080000EE
:1038C0000020203F2020000000000808F808080021
:1038D000C08080807F00000008F888C02818080099
:1038E000203F20012638200008F8080000000000D2
:1038F000203F20202020300008F8F800F8F80800C9
:10390000203F003F003F200008F830C00008F808C2
:10391000203F200007183F00E01008080810E000D2
:103920000F10202020100F0008F808080808F000E9
:10393000203F210101010000E01008080810E0000C
:103940000F18242438504F0008F8888888887000A1
:10395000203F2000030C3020007088080808380041
:103960000038202121221C00180808F80808180037
:103970000000203F2000000008F808000008F808B8
:10398000001F202020201F000878880000C8380869
:10399000000007380E010000F80800F80008F800E1
:1039A000033C0700073C030008186880806818087B
:1039B00020302C03032C30200838C800C8380800F9
:1039C0000000203F2000000010080808C838080048
:1039D0002038262120201800000000FE02020200EC
:1039E0000000007F40404000000C30C0000000009C
:1039F000000000010638C00000020202FE000000C4
:103A0000004040407F000000000004020202040069
:103A100000000000000000000000000000000000A6
:103A2000808080808080808000020204000000008E
:103A30000000000000000000000080808080000086
:103A40000019242222223F2008F800808000000074
:103A5000003F112020110E00000000808080000037
:103A6000000E112020201100000000808088F80046
:103A7000000E112020103F20000080808080000078
:103A8000001F222222221300008080F088888818DC
:103A90000020203F202000000000808080808000E7
:103AA000006B94949493600008F80080808000007C
:103AB000203F210000203F20008098980000000057
:103AC0000020203F20200000000000809898000087
:103AD00000C08080807F000008F8000080808000A7
:103AE000203F24022D302000000808F800000000CC
:103AF0000020203F20200000808080808080800087
:103B0000203F20003F20003F808000808080000018
:103B1000203F210000203F200000808080800000A6
:103B2000001F202020201F008080008080000000D7
:103B300080FFA12020110E00000000808080800006
:103B4000000E112020A0FF808080800080808000F7
:103B500020203F2120000100000080808080800024
:103B60000033242424241900008080E08080000099
:103B70000000001F202000008080000000808000E6
:103B8000001F202020103F20808080000080808047
:103B900000010E30080601008080008000808080D7
:103BA0000F300C030C300F000080800080808000FC
:103BB0000020312E0E312000808080000080808027
:103BC00080818E70180601000080808080808000D7
:103BD0000021302C2221300000000000807C0202F5
:103BE00000000000003F404000000000FF00000017
:103BF00000000000FF0000000002027C80000000C6
:103C00000040403F000000000006010102020404E1
:103C10000000000000000000040000080000000098
:103C20000000000200010000100000000000000081
:103C300000000000303132333435363738394142F4
:103C400043444546403058003031323334353637FE
:103C500038396162636465664030780030313233F0
:103C600034353637383961626364656678700030A0
:103C7000313233343536373839414243444546587A
:103C80005000000002400000000000A00000000002
:103C900005400000000000C8000000000C400000CB
:103CA0000000409C00000000194000000020BCBE45
:103CB0000000000034400000BFC91B8E000000045B
:103CC000B5400000504BCFD06607E2CF01000000A6
:103CD0006C4100003E8251AADFEEA73401000000D3
:103CE000D9420000DCB5A0E23A301F97FFFFFFFF8A
:103CF000B4450000FD25A0C8E9A3C14FFFFFFFFFA9
:103D0000FF3F00000000008000000000FF3F0000B7
:103D10000000008000000000643E00080000002059
:103D20004000000028010008A43E000840000020D8
:103D3000D80B0000440100081C00000043000000F4
:103D4000F8FFFFFF0C0000000E0000000F00000055
:103D50002E0000001001000043000000F8FFFFFFEC
:103D6000004040404040404040404141414141408E
:103D70004040404040404040404040404040404043
:103D800040050202020202020202020202020202D2
:103D900002202020202020202020200202020202D7
:103DA000020290909090909010101010101010102F
:103DB000101010101010101010101010020202023B
:103DC000020288888888888808080808080808087F
:103DD000080808080808080808080808020202027B
:103DE0004000000000000000000000000000000093
:103DF00000000000000000000000000000000000C3
:103E000000000000000000000000000000000000B2
:103E100000000000000000000000000000000000A2
:103E20000000000000000000000000000000000092
:103E30000000000000000000000000000000000082
:103E40000000000000000000000000000000000072
:103E50000000000000000000000000000000000062
:103E60000000000000A24A04000000000000000062
:103E70000102030406070809000000000102030410
:103E800001020304060708090204060800000000F6
:103E90000000000000000000000000000000000022
:043EA000000000001E
:04000005080000ED02
:00000001FF
