:020000040800F2
:10000000280C0020CD010008BD05000843040008AD
:100010004F0400087D020008A7120008000000003D
:10002000000000000000000000000000B50800080B
:1000300005030008000000005D070008C90900086A
:10004000E7010008E7010008E7010008E7010008F0
:10005000E7010008E7010008E7010008E7010008E0
:10006000E7010008E7010008E7010008E7010008D0
:10007000E7010008E7010008E7010008E7010008C0
:10008000E7010008E7010008E7010008E7010008B0
:10009000E7010008E7010008E7010008E7010008A0
:1000A000E7010008E7010008E7010008E701000890
:1000B0002D0A0008E7010008B90A0008E701000856
:1000C000E7010008E7010008E7010008E701000870
:1000D000E7010008F10E00088D0F0008F90F000875
:1000E000E7010008E7010008E7010008E701000850
:1000F000E7010008E7010008E7010008E701000840
:10010000E7010008E7010008E7010008E70100082F
:100110005D0E0008C50E0008E7010008E7010008B1
:10012000E7010008E7010008E7010008E70100080F
:1001300000F002F800F03AF80AA090E8000C8244BF
:100140008344AAF10107DA4501D100F02FF8AFF29C
:10015000090EBAE80F0013F0010F18BFFB1A43F0A5
:10016000010318473815000058150000103A24BF45
:1001700078C878C1FAD8520724BF30C830C144BF0C
:1001800004680C607047000000230024002500264E
:10019000103A28BF78C1FBD8520728BF30C148BFEA
:1001A0000B6070471FB51FBD10B510BD00F033F8D0
:1001B0001146FFF7F7FF01F09DF800F051F803B486
:1001C000FFF7F2FF03BC01F070F800000948804718
:1001D00009480047FEE7FEE7FEE7FEE7FEE7FEE729
:1001E000FEE7FEE7FEE7FEE704480549054A064B41
:1001F00070470000CD0900083101000828060020E2
:10020000280C00202808002028080020704770478C
:10021000704770477047754600F02CF8AE460500F1
:100220006946534620F00700854618B020B5FFF711
:10023000DBFFBDE820404FF000064FF000074FF015
:1002400000084FF0000B21F00701AC46ACE8C009F4
:10025000ACE8C009ACE8C009ACE8C0098D467047FD
:1002600010B50446AFF300802046BDE81040FFF70C
:10027000A6BF000000487047C405002000BFFEE78D
:1002800010B51E48006840F2EE21884210DC1C4880
:10029000006888420CDC19480068B0F5FA7F07DD79
:1002A00017480068B0F5FA7F02DD142000F0BAF8B4
:1002B00012480068B0F57A7F11DC11480068B0F58B
:1002C0007A7F0CDC0D48006840F2EE21884206DDA2
:1002D0000B480068884202DD1E2000F0A3F80748A2
:1002E0000068B0F57A7F07DD05480068B0F57A7FD1
:1002F00002DD282000F096F810BD0000400000202C
:100300004400002070472DE9F041024600250026F8
:10031000002000230024002791F803C00CF00F05F3
:1003200091F803C00CF0100CBCF1000F03D091F851
:1003300002C04CEA050591F800C0BCF1000F31D0B5
:10034000146800202BE04FF0010C0CFA00F3B1F818
:1003500000C00CEA03069E4220D183004FF00F0C30
:100360000CFA03F7BC4305FA03FC4CEA040491F8C9
:1003700003C0BCF1280F06D14FF0010C0CFA00FCB1
:10038000C2F814C00AE091F803C0BCF1480F05D1CF
:100390004FF0010C0CFA00FCC2F810C0401C0828F9
:1003A000D1D31460B1F800C0BCF1FF0F34DD546844
:1003B00000202EE000F1080C4FF0010808FA0CF3C1
:1003C000B1F800C00CEA03069E4221D183004FF031
:1003D0000F0C0CFA03F7BC4305FA03FC4CEA0404C7
:1003E00091F803C0BCF1280F05D100F1080C08FA00
:1003F0000CF8C2F8148091F803C0BCF1480F07D183
:1004000000F1080C4FF0010808FA0CF8C2F810804F
:10041000401C0828CED35460BDE8F081416170478C
:100420000161704710B5044660B200F03BF860B25D
:1004300000F058F860B200F079F860B200F09AF875
:1004400010BD00BFFEE710B500F004F810BD00BFFE
:10045000FEE700001CB501210C2000F0A1F91020DE
:100460008DF8070041F63000ADF8040003208DF848
:10047000060001A90948FFF746FF10208DF8030088
:100480004FF47040ADF8000003208DF8020069467B
:100490000348FFF738FF00F0D5F81CBD0008014005
:1004A000000C014010B50446002C0BDB10210C4859
:1004B000FFF7B6FF20210A48FFF7B0FFA0B200F017
:1004C00025F90BE010210648FFF7A8FF202104487A
:1004D000FFF7A6FF614288B200F018F910BD0000D6
:1004E0000008014010B50446002C0DDB4FF40061FC
:1004F0000D48FFF795FF4FF480510B48FFF78EFF33
:10050000A0B200F00DF90DE04FF400610648FFF7CE
:1005100085FF4FF480510448FFF782FF614288B2A3
:1005200000F0FEF810BD00000008014010B50446C0
:10053000002C0DDB4FF480510D48FFF771FF4FF495
:1005400000510B48FFF76AFFA0B200F0F3F80DE08E
:100550004FF480510648FFF761FF4FF40051044803
:10056000FFF75EFF614288B200F0E4F810BD0000C2
:10057000000C014010B50446002C0DDB4FF4804107
:100580000D48FFF74DFF4FF400410B48FFF746FFC2
:10059000A0B200F0D9F80DE04FF480410648FFF713
:1005A0003DFF4FF400410448FFF73AFF614288B233
:1005B00000F0CAF810BD0000000C014070470000B8
:1005C00070B5002100230F22C47804B3154C2468B1
:1005D00004F4E064C4F5E064210AC1F10403CA40F4
:1005E000447804FA03F184781440214309010E4C45
:1005F0000678A155047804F01F050124AC40057865
:100600006D11AD0005F1E025C5F8004109E0047861
:1006100004F01F050124AC40044D0678761145F81E
:10062000264070BD0CED00E000E400E080E100E059
:1006300002490143024A1160704700000000FA05B8
:100640000CED00E000B589B00121022000F088F82F
:1006500001210C2000F0A4F818208DF82300C02000
:10066000ADF8200003208DF8220008A92448FFF7E8
:100670004AFE18208DF81F000320ADF81C008DF8ED
:100680001E0007A91F48FFF73EFE1F4800F04BFA67
:100690000020ADF81600ADF812006320ADF814008C
:1006A0002320ADF8100000208DF8180004A916488A
:1006B00000F082FB684600F069FB6020ADF80000A6
:1006C0000020ADF808000120ADF802000020ADF8D0
:1006D000060069460C4800F02DFA69460A4800F009
:1006E00075FA6946084800F0C3FA6946064800F002
:1006F0000FFB0121044800F0F0F909B000BD000033
:1007000000080140000C01400004004010B5044600
:100710002146024800F044FB10BD000000040040E8
:1007200010B504462146024800F03CFB10BD000015
:100730000004004010B504462146024800F034FB96
:1007400010BD00000004004010B5044621460248D8
:1007500000F02CFB10BD00000004004070470000BA
:1007600029B1064AD2690243044BDA6104E0034A24
:10077000D2698243014BDA617047000000100240E9
:1007800029B1064A12690243044B1A6104E0034A84
:1007900012698243014B1A61704700000010024049
:1007A00029B1064A92690243044B9A6104E0034A64
:1007B00092698243014B9A61704700000010024029
:1007C00029B1064AD2680243044BDA6004E0034AC6
:1007D000D2688243014BDA6070470000001002408B
:1007E00030B500210022002400232D4D6D6805F056
:1007F0000C0121B1042905D0082923D105E0294D98
:10080000056022E0274D05601FE0254D6D6805F469
:100810007012234D6D6805F48034022505EB924279
:100820001CB9214D554305600BE01D4D6D6805F465
:1008300000351DB11C4D5543056002E0194D55436F
:10084000056002E0174D056000BF00BF144D6D68E4
:1008500005F0F0010909154D6B5C0568DD40456048
:100860000F4D6D6805F4E061090A104D6B5C456839
:10087000DD4085600A4D6D6805F46051C90A0B4D75
:100880006B5C4568DD40C560054D6D6805F4404111
:10089000890B074D6B5CC568B5FBF3F5056130BD91
:1008A0000010024000127A0000093D0014000020F0
:1008B00024000020704710B500F002F810BD0000C1
:1008C0000CB50020019000903348006840F480305F
:1008D0003149086000BF3048006800F400300090E3
:1008E0000198401C0190009818B90198B0F5A06FCC
:1008F000F1D12948006800F4003010B101200090C7
:1009000001E0002000900098012843D123480068AE
:1009100040F01000214908600846006820F00300FC
:1009200008600846006840F0020008601A48406805
:10093000194948600846406848600846406840F4E5
:10094000806048600846406820F47C104860084693
:10095000406840F4E81048600846006840F0807045
:10096000086000BF0C48006800F000700028F9D053
:100970000948406820F0030007494860084640687D
:1009800040F00200486000BF0348406800F00C00DF
:100990000828F9D10CBD00000010024000200240E0
:1009A000042808D14FF0E021096941F004014FF01B
:1009B000E022116107E04FF0E021096921F0040114
:1009C0004FF0E022116170477047000010B51348E6
:1009D000006840F00100114908600846406810496D
:1009E00008400E494860084600680E4908400B4917
:1009F00008600846006820F48020086008464068C7
:100A000020F4FE0048604FF41F008860FFF753FF9A
:100A10004FF000600449086010BD00000010024063
:100A20000000FFF8FFFFF6FE08ED00E010B5012121
:100A3000880700F05EF870B10748008840F4004075
:100A4000054908800121880700F044F800214FF093
:100A5000804000F042F810BD340000207FB505460C
:100A60000C4601210846FFF77BFEADF80450ADF8B7
:100A700000400020ADF80600ADF8020069464FF0D6
:100A8000804000F099F901221146900700F042F8E9
:100A90000121880700F021F81C208DF80C000020AF
:100AA0008DF80D0002208DF80E0001208DF80F004A
:100AB00003A8FFF785FD7FBD10B50121044800F0B4
:100AC00018F818B10121024800F004F810BD000028
:100AD00000080040CA430282704721B1028842F0F8
:100AE0000102028004E002884FF6FE731A40028081
:100AF000704730B50246002000230024158A05EA1D
:100B00000103958905EA010413B10CB1012000E04D
:100B1000002030BD1AB183890B43838102E08389B1
:100B20008B438381704701894FF6F8721140018130
:100B30007047000070B5002400220023058C4FF69A
:100B4000FE7635400584028C8388048B4FF68F75C2
:100B50002C40B51E2C400D882C43751E2A400D8953
:100B60002A434D882A43144DA8420BD0134DA84266
:100B700008D0134DA84205D0124DA84202D0124D04
:100B8000A84213D14FF6F7752A404D892A434FF6F4
:100B9000FB752A408D882A434FF6FF652B404FF6A0
:100BA000FF552B408D892B43CD892B4383800483B4
:100BB000CD888586028470BD002C01400034014040
:100BC00000400140004401400048014070B500244D
:100BD00000220023058C4FF6EF7635400584028C09
:100BE0008388048B48F6FF752C404FF6FF452C4058
:100BF0000D884FF6FF7606EA05252C434FF6DF7584
:100C00002A400D8906EA05152A434D8806EA05158E
:100C10002A43154DA84202D0144DA8421DD14FF6CB
:100C20007F752A404D894FF6FF7606EA05152A435F
:100C30004FF6BF752A408D8806EA05152A434FF600
:100C4000FF352B404FF2FF752B408D8906EA850555
:100C50002B43CD8906EA85052B4383800483CD8809
:100C60000587028470BD0000002C01400034014063
:100C700070B5002400220023058C4FF6FF66354036
:100C80000584028C8388848B4FF68F752C404FF639
:100C9000FC752C400D882C434FF6FF552A400D89DA
:100CA0004FF6FF7606EA05252A434D8806EA052514
:100CB0002A43154DA84202D0144DA8421DD14FF22F
:100CC000FF752A404D894FF6FF7606EA05252A432F
:100CD0004FF6FF352A408D8806EA05252A434EF651
:100CE000FF752B404DF6FF752B408D8906EA0515E3
:100CF0002B43CD8906EA05152B4383808483CD8859
:100D00008587028470BD0000002C01400034014042
:100D100070B5002200230024058C4EF6FF76354086
:100D20000584038C8488828B48F6FF752A404FF631
:100D3000FF452A400D884FF6FF7606EA05252A432F
:100D40004DF6FF752B400D8906EA05352B434D887E
:100D500006EA05352B430B4DA84202D00A4DA842A6
:100D600008D14BF6FF752C408D894FF6FF7606EAC9
:100D700085152C4384808283CD88A0F8405003845D
:100D800070BD0000002C01400034014000210180B2
:100D900041808180C180018141818181C181704711
:100DA000818670470187704781877047A0F840109F
:100DB0007047818470470000002202881D4B9842D2
:100DC0000ED01D4B98420BD0B0F1804F08D01B4B7A
:100DD000984205D01A4B984202D01A4B984204D13F
:100DE0004FF68F731A404B881A43174B984207D01F
:100DF000164B984204D04FF6FF431A40CB881A4353
:100E000002808B8883850B8803850A4B98420BD020
:100E1000094B984208D00E4B984205D00D4B984292
:100E200002D00D4B984201D10B7A038601238382B5
:100E300070470000002C01400034014000040040D5
:100E400000080040000C004000100040001400406A
:100E500000400140004401400048014010B540F20C
:100E60002551144800F05EF910B3124800F016FA4C
:100E70001149124A1278885408460078A52803D0F0
:100E800000200E49087004E00C480078401C0B4913
:100E900008700A48007803280AD100200749087022
:100EA000054880780449497840EA012004490860EF
:100EB00010BD0000004C00403B0000203F0000201F
:100EC0004400002010B540F22551064800F02AF9F0
:100ED00038B1044800F0E2F90349087001200349E1
:100EE000087010BD0050004048000020490000205C
:100EF00010B540F22551214800F014F900283BD0EC
:100F00001E4800F0CBF91E4908701E48008800F406
:100F1000004088BB1B48008800F4804070B1084640
:100F200000780A2803D000201649088024E01548DC
:100F3000008840F40040134908801DE01048007804
:100F40000D2806D10F48008840F480400D490880E4
:100F500012E00B4800780B490988C1F30D010A4AD9
:100F6000505408480088401C0649088008460088FC
:100F7000C72801DD0020088010BD000000380140B6
:100F800032000020300000204C00002010B540F25C
:100F90002551154800F0C6F828B3134800F07EF933
:100FA0001249134A1278885408460078A52803D0BD
:100FB00000200F49087004E00D480078401C0C49DF
:100FC00008700B48007803280DD1002008490870EC
:100FD000064880780549497840EA012005490860BB
:100FE00008460068086010BD00440040380000203A
:100FF0003E0000204000002010B540F22551184866
:1010000000F090F818B3164800F048F91549087038
:101010001548008800F40040C8B913480088B0F5AE
:10102000167F15DA00214FF08040FFF7C2FE0E4810
:10103000008818B901218807FFF74FFD09490A7890
:1010400009490888411C084B198008490A5405E0E1
:101050000548008840F400400349088010BD0000A6
:101060000048004036000020340000201401002019
:1010700021B1828942F40052828104E082894DF6D6
:10108000FF731A408281704710B50446204884429D
:1010900009D101218803FFF793FB00214FF4804021
:1010A000FFF78EFB32E01B48844209D1012148043E
:1010B000FFF766FB00214FF40030FFF761FB25E0EE
:1010C0001548844209D101218804FFF759FB00210A
:1010D0004FF48020FFF754FB18E01048844209D1F8
:1010E0000121C804FFF74CFB00214FF40020FFF75B
:1010F00047FB0BE00A48844208D101210805FFF7AD
:101100003FFB00214FF48010FFF73AFB10BD0000B9
:10111000003801400044004000480040004C0040BE
:101120000050004070B50246002400230025002036
:1011300040F66A16B14200D100BFC1F3421501F07A
:101140001F03012606FA03F3012D02D196893340CD
:1011500006E0022D02D1168A334001E0968A334020
:101160000C12012606FA04F41688344013B10CB1AF
:10117000012000E0002070BDF0B5034600240026E9
:101180000025002040F66A17B94200D100BF18467A
:10119000C1F3421401F01F06012707FA06F5012CDE
:1011A00001D10C3004E0022C01D1103000E01430E9
:1011B0001AB107682F43076002E00768AF43076072
:1011C000F0BD00002DE9F04786B005460E4600242C
:1011D000A24600BFA1460027B08900B100BF2F463C
:1011E0002C8A4CF6FF700440F08804432C82AC89B2
:1011F0004EF6F3100440B0883189084371890843E2
:101200000443AC81AC8A4FF6FF400440B0890443EC
:10121000AC8201A8FFF7E4FA1F48874202D1DDF84B
:1012200010A001E0DDF80CA0A88900F4004040B156
:101230000AEBCA0000EB0A1031684900B0FBF1F874
:1012400007E00AEBCA0000EB0A1031688900B0FB26
:10125000F1F86420B8FBF0F004012009642101FBDF
:101260001089A88900F4004040B1322000EBC90089
:10127000B0FBF1F000F00700044308E0322000EB7F
:1012800009106421B0FBF1F000F00F0004432C8141
:1012900006B0BDE8F08700000038014001468888AC
:1012A000C0F30800704700BFFEE700BF70470000B2
:1012B00010B56FF00400FFF773FB0A4800680A4995
:1012C000B0FBF1F0094908700846007800EB4001D6
:1012D000C1EBC0104FF6FF7101EAC000044908805D
:1012E00010BD00000000002000127A00280000203D
:1012F0002A0000204FF4A060FFF79AF9FFF7AAF840
:10130000FFF7D6FFFFF79FF84FF4E13000F00EF93A
:101310004FF4E13000F010F84FF4E13000F056F9EE
:101320004FF4E13000F05AF84FF4165000F0AAF8EC
:1013300001E0FEF7A5FFFCE710B586B004460121E9
:101340000420FFF72DFA01214804FFF709FA0420D1
:10135000ADF8140003208DF8160018208DF8170042
:1013600005A91C48FEF7CFFF0820ADF814000420A3
:101370008DF8170005A91748FEF7C5FF26208DF840
:10138000000003208DF801008DF8020001208DF887
:1013900003006846FFF714F901940020ADF8080037
:1013A000ADF80A00ADF80C00ADF810000C20ADF857
:1013B0000E0001A90848FFF705FF012240F2255160
:1013C0000548FFF7D9FE01210348FFF751FE06B09B
:1013D00010BD0000000801400044004010B586B078
:1013E000044601211020FFF7DBF90121C804FFF7B3
:1013F000B7F94FF48060ADF8140003208DF81600A3
:1014000018208DF8170005A91C48FEF77CFF4FF443
:101410000060ADF8140004208DF8170005A91748E6
:10142000FEF771FF34208DF8000003208DF80100D5
:1014300002208DF8020001208DF803006846FFF7B6
:10144000BFF801940020ADF80800ADF80A00ADF82F
:101450000C00ADF810000C20ADF80E0001A90848F2
:10146000FFF7B0FE012240F225510548FFF784FE48
:1014700001210348FFF7FCFD06B010BD001001403C
:10148000004C004010B586B0044601213020FFF723
:1014900087F901210805FFF763F94FF48050ADF893
:1014A000140003208DF8160018208DF8170005A9E8
:1014B0001B48FEF728FF0420ADF814008DF8170034
:1014C00005A91848FEF71FFF35208DF800000320FE
:1014D0008DF8010000208DF8020001208DF8030036
:1014E0006846FFF76DF801940020ADF80800ADF8EC
:1014F0000A00ADF80C00ADF810000C20ADF80E009D
:1015000001A90948FFF75EFE012240F22551064875
:10151000FFF732FE01210448FFF7AAFD06B010BD17
:1015200000100140001401400050004010B586B08A
:101530000446012144F20400FFF732F94FF4007031
:10154000ADF8140003208DF8160018208DF8170050
:1015500005A91C48FEF7D7FE4FF48060ADF81400D3
:1015600004208DF8170005A91648FEF7CCFE2520AB
:101570008DF8000003208DF8010001208DF8020095
:101580008DF803006846FFF71BF801940020ADF8C2
:101590000800ADF80A00ADF80C00ADF810000C2002
:1015A000ADF80E0001A90848FFF70CFE012240F239
:1015B00025510548FFF7E0FD01210348FFF758FDDD
:1015C00006B010BD000801400038014010B586B0DB
:1015D000044601210820FFF7E3F801218804FFF702
:1015E000BFF82B48FFF750FD4FF48060ADF81000B6
:1015F00003208DF8120018208DF8130004A9254847
:10160000FEF781FE4FF40060ADF8100004208DF865
:10161000130004A91F48FEF776FE00940020ADF8E1
:101620000400ADF80600ADF80800ADF80C000C2081
:10163000ADF80A0069461648FFF7C4FD01211448B9
:10164000FFF716FD012240F225511148FFF794FDE6
:1016500027208DF8140002208DF8150003208DF846
:10166000160001208DF8170005A8FEF7A9FF41F626
:101670001F4140F2E730FFF7F1F9002006490880EA
:1016800000214FF08040FFF728FA06B010BD00009F
:1016900000480040000C014034000020BC16000847
:1016A000000000204C0000006C0100080817000832
:1016B0004C000020DC0B00008801000800A24A0456
:1016C00000000000000000000102030406070809F2
:1016D00000000000010203040102030406070809D8
:1016E00002040608000000000000000000000000E6
:1016F00000000000000000000000000000000000EA
:081700000000000000000000E1
:0400000508000131BD
:00000001FF
